:020000040000FA
:100000000C9469010C949A010C949A010C949A0135
:100010000C949A010C949A010C949A010C949A01F4
:100020000C949A010C949A010C949A010C949A01E4
:100030000C949A010C949A010C949A010C949A01D4
:100040000C949A010C949A010C949A010C949A01C4
:100050000C949A010C949A010C949A010C94870BBD
:100060000C949A010C94510B0C94270B0C949A014C
:100070000C949A010C949A010C949A010C949A0194
:100080000C949A010C949A010C949A010C949A0184
:100090000C949A010C949A010C949A010C949A0174
:1000A0000C949A010C949A010C949A010C949A0164
:1000B0000C949A010C949A010C949A010C949A0154
:1000C0000C949A010C949A010C949A010C949A0144
:1000D0000C949A010C949A010C949A010C949A0134
:1000E0000C949A010C94B0030C94E8010C94FF0555
:1000F0000C9477040C94CF040C9414060C94F70120
:100100000C9471040C946B040C94F9020C94F1059A
:100110000C94B4030C94FB030C94A6030C94A0035E
:100120000C948D050C940D060C94F8050C94730436
:100130000C94B8030C9459020C9499030C94770511
:100140000C9424050C94C2030C94EA050C94D10B76
:100150000C9429040C9446040C94BB010C940606E0
:100160000C94E2050C949D030C94BE030C94D003F4
:100170000C9495030C946F040C94C6030C94F00437
:100180000C9491020C946D040C9475040C947F03F0
:100190000C9491030C9445050C947A030C94AA03D7
:1001A0000C94CB050C9479040C94CC030C944B0266
:1001B00000000A0B02090C0D0E08070304010000E1
:1001C000000000000000000000000000000000002F
:1001D00000000000000000000000000012111000EC
:1001E000000000000000000000000000000000000F
:1001F0000000000000007D002C20227A223A20001E
:100200002C202279223A20007B2278223A200000FA
:10021000002200250028002B002E003100340002AF
:10022000010000050108010B010000210024002746
:10023000002A002D003000330001010000040107F6
:10024000010A01050505050705080808080202025C
:10025000020A0A0808040404040101010101010161
:10026000010303030303030303040707070C0C0C38
:100270000C0C0C0C0C020202020606060606060610
:10028000060B0B0B0B0B0B0B0B01021020200808AD
:1002900010204010204080020102010804020101E8
:1002A00002040810204080804020100804020180D1
:1002B0000402018040201008040201080402010128
:1002C0000204081020408001020408102040800031
:1002D000D10B11241FBECFEFD1E2DEBFCDBF00E0B6
:1002E0000CBF23E0AAE7B2E001C01D92AC3FB20709
:1002F000E1F712E0A0E0B2E0EEEDF7E200E00BBFC4
:1003000002C007900D92AA37B107D9F711E0C9E6EC
:10031000D1E000E006C021970109802FFE010E9474
:10032000C611C836D10780E00807A9F70E941D0C46
:100330000C94ED130C94000090E0FC01E757FD4F86
:1003400024918D5B9D4FFC018491882399F090E06E
:10035000880F991FFC01E75DFD4FA591B491FC0149
:10036000E15FFD4F859194918FB7F894EC91E22B6A
:10037000EC938FBF0895AF92BF92CF92DF92EF922E
:10038000FF920F931F93CF93DF936C017B018B013F
:10039000040F151FEB015E01AE18BF08C017D1078F
:1003A00059F06991D601ED91FC910190F081E02D19
:1003B000C6011995892B79F7C501DF91CF911F915E
:1003C0000F91FF90EF90DF90CF90BF90AF90089586
:1003D000FC01538D448D252F30E0842F90E0821B4B
:1003E000930B541710F0CF96089501970895FC01D0
:1003F000918D828D981761F0A28DAE0FBF2FB11D28
:100400005D968C91928D9F5F9F73928F90E008957F
:100410008FEF9FEF08952FB7F89480918502909108
:100420008602A0918702B09188022FBF809391022B
:1004300090939202A0939302B093940289E892E081
:100440000E94F70197FF26C02FB7F894809185028C
:1004500090918602A0918702B09188022FBF4091AF
:100460009102509192026091930270919402841BC8
:10047000950BA60BB70B40918D0250918E026091A7
:100480008F027091900284179507A607B707B0F204
:100490008FEF9FEF0895FC01918D828D981731F0B9
:1004A000828DE80FF11D858D90E008958FEF9FEF0D
:1004B0000895FC01918D228D892F90E0805C9F4FE3
:1004C000821B91098F739927089589E892E00E9411
:1004D000590221E0892B09F420E0822F0895FC01C4
:1004E000A48DA80FB92FB11DA35ABF4F2C91848D95
:1004F00090E001968F739927848FA689B7892C93F2
:10050000A089B1898C91837080648C93938D848D44
:10051000981306C00288F389E02D80818F7D808347
:100520000895EF92FF920F931F93CF93DF93EC0107
:1005300081E0888F9B8D8C8D98131AC0E889F9898A
:10054000808185FF15C09FB7F894EE89FF8960838D
:10055000E889F98980818370806480839FBF81E00E
:1005600090E0DF91CF911F910F91FF90EF90089550
:10057000F62E0B8D10E00F5F1F4F0F731127E02E2B
:100580008C8D8E110CC00FB607FCFACFE889F98963
:10059000808185FFF5CFCE010E946F02F1CFEB8DF8
:1005A000EC0FFD2FF11DE35AFF4FF0829FB7F89437
:1005B0000B8FEA89FB8980818062CFCF0F931F93D5
:1005C000CF93DF938C01D0E0C0E0F801EC0FFD1F6A
:1005D0006491662341F089E892E00E949102892BA0
:1005E00011F02196F2CFCE01DF91CF911F910F91A3
:1005F0000895CF93DF93EC01888D8823B9F0AA8901
:10060000BB89E889F9898C9185FD03C0808186FDCD
:100610000DC00FB607FCF7CF8C9185FFF2CF80811C
:1006200085FFEDCFCE010E946F02E9CFDF91CF9120
:10063000089580E090E0892B29F00E9465028111E5
:100640000E94000080E090E0892B49F080E090E07B
:10065000892B29F00E94000081110E94000080E097
:1006600090E0892B49F080E090E0892B29F00E94EE
:10067000000081110E94000080E090E0892B49F089
:1006800080E090E0892B29F00E94000081110C94F9
:1006900000000895282F30E0F901E055FE4F9491B5
:1006A000F901E757FD4F44912D5B3D4FF90124912E
:1006B000222309F435C0992311F191509231F8F4B5
:1006C000E92FF0E08827E859FC4F8F4F0C94C611B2
:1006D00099039D037A03910395037F03A003A60367
:1006E000AA03B003B403B803BE03C2037F03C60367
:1006F000CC03D003809180008F7780938000E22F1D
:10070000F0E0EE0FFF1FE15FFD4FA591B4918FB7B1
:10071000F894EC91611148C040954E234C938FBFE3
:100720000895809180008F7DE8CF80918000877F41
:10073000E4CF84B58F7784BDE2CF84B58F7DFBCFC6
:100740008091B0008F778093B000D9CF8091B000B6
:100750008F7DF9CF809190008F7780939000CFCFDD
:10076000809190008F7DF9CF80919000877FF5CFA9
:100770008091A0008F778093A000C1CF8091A000CE
:100780008F7DF9CF8091A000877FF5CF80912001E8
:100790008F7780932001B3CF809120018F7DF9CF97
:1007A00080912001877FF5CF4E2BB8CF3FB7F894CB
:1007B00080917B0290917C02A0917D02B0917E029B
:1007C00026B5A89B05C02F3F19F00196A11DB11DAC
:1007D0003FBFBA2FA92F982F8827BC01CD01620FE8
:1007E000711D811D911D42E0660F771F881F991FA3
:1007F0004A95D1F70895CF93DF93FC0123812223FB
:1008000029F1EC0184810E949C018D810E949C0150
:100810008B81843011F0883099F48E810E949C0184
:100820008F810E949C018FA58F3F81F00E949C01C7
:100830006EA581E068278FA5DF91CF910C944A03C4
:10084000833011F0863079F78E81EBCFDF91CF9135
:100850000895CF93DF93FC0123812223A1F0EC01C3
:100860000190F081E02D0480F581E02D60E0199584
:100870008FA58F3F41F00E949C016EA58FA5DF914F
:10088000CF910C944A03DF91CF910895DC01ED9153
:10089000FC9111972481358147705527662777276A
:1008A00041505109610971094730510561057105D0
:1008B00070F4FA018827E05AFB4F8F4F0C94C61151
:1008C0006B046D046F04710473047504770461E0B4
:1008D000CD01F901199465E0FBCF64E0F9CF66E042
:1008E000F7CF62E0F5CF6AE0F3CF68E0F1CF69E0DF
:1008F000EFCFCF93DF93EC01CB01BA0126E030E0DC
:1009000040E050E00E94A711623071058105910519
:1009100089F16CF46115710581059105D1F06130A3
:10092000710581059105F9F0DF91CF91089564304B
:1009300071058105910561F124F16530710581052D
:10094000910591F7E881F9810480F581E02D66E059
:1009500006C0E881F9810480F581E02D64E0CE01D4
:10096000DF91CF911994E881F9810480F581E02D20
:1009700065E0F5CFE881F9810480F581E02D61E043
:10098000EECFE881F9810480F581E02D63E0E7CFC7
:10099000E881F9810480F581E02D62E0E0CFDC019F
:1009A000ED91FC910480F581E02D43705527662779
:1009B0007727423051056105710571F043305105CB
:1009C0006105710559F0413051056105710511F05E
:1009D00065E0199466E0FDCF6AE0FBCF69E0F9CFEE
:1009E000CF93DF93EC01CB01BA0123E030E040E08C
:1009F00050E00E94A711613071058105910599F0C1
:100A00006230710581059105A9F0672B682B692B70
:100A1000C1F4E881F9810480F581E02D64E0CE0124
:100A2000DF91CF911994E881F9810480F581E02D5F
:100A300061E0F5CFE881F9810480F581E02D62E085
:100A4000EECFDF91CF910895DC01ED91FC91048010
:100A5000F581E02D437055276627772742305105F1
:100A60006105710571F0433051056105710559F05B
:100A7000413051056105710511F062E0199463E0A0
:100A8000FDCF61E0FBCF60E0F9CFCF93DF93EC01C6
:100A9000E881F9810480F581E02D8A8160E081118F
:100AA00062E0CE011995E881F9810480F581E02D9D
:100AB0008A8161E0811163E0CE0119958CA59DA525
:100AC0008230910538F0880F991F880F991F05977C
:100AD0000197F1F7E881F9810480F581E02D8A81A1
:100AE00060E0811162E0CE01DF91CF911994CF9344
:100AF000DF93EC0120E030E0A9016C897D898E89CB
:100B00009F890E94251118162CF4E8A9F9A9DF91F4
:100B1000CF911994EAA9FBA9FACFCF92DF92EF9275
:100B2000FF920F931F93CF93DF93DC011396CC9129
:100B3000C43039F0C83059F1C33019F0C63049F12A
:100B4000C2E08C010C5F1F4FF12CE12CC62ED12C82
:100B5000D1E0F8016481C6010E2C02C095958795FD
:100B60000A94E2F780FD6D270F5F1F4F80810E947E
:100B70004A03BFEFEB1AFB0AEC1658F3DF91CF9153
:100B80001F910F91FF90EF90DF90CF900895C4E0F8
:100B9000D8CFC3E0D6CFDC011396EC911397E930A0
:100BA00008F042C0F0E08827E752FA4F8F4F0C94CC
:100BB000C611E205EA05F105F805FF05140606066B
:100BC00014060D06ED91FC9111970084F185E02D3E
:100BD000CD011994ED91FC9111970284F385E02DDC
:100BE000F7CFED91FC9111970484F585E02DF0CFBE
:100BF000ED91FC9111970684F785E02DE9CFED91F9
:100C0000FC9111970088F189E02DE2CFED91FC91E4
:100C100011970288F389E02DDBCFED91FC911197BC
:100C20000488F589E02DD4CF08954F925F926F929A
:100C30007F928F929F92AF92BF92CF92DF92EF926C
:100C4000FF920F931F93CF93DF93EC01C888D9884D
:100C5000EA88FB888C859D85AE85BF85C81AD90A30
:100C6000EA0AFB0A6C897D898E899F899B01AC0108
:100C70000E94520F4B015C016C8D7D8D8E8D9F8D7E
:100C80009B01AC010E9411109B01AC01C501B40194
:100C90000E947D100E94EF10C114D104E104F10400
:100CA00009F0B1C062307105810591050CF0CBC02F
:100CB0001CA21DA21EA21FA21C8A1D8A1E8A1F8A98
:100CC0001CAA1DAA1EAA1FAADF91CF911F910F91E6
:100CD000FF90EF90DF90CF90BF90AF909F908F905C
:100CE0007F906F905F904F90089510161106120636
:100CF0001306B4F46C157D058E059F051CF42A813E
:100D00002111A1C09B01AC0188279927DC01821B1E
:100D1000930BA40BB50B8CAB9DABAEABBFAB93C031
:100D2000011511052105310509F48DC06C157D05EE
:100D30008E059F050CF087C08A81882309F483C043
:100D400030952095109501951F4F2F4F3F4F0CABBD
:100D50001DAB2EAB3FAB77C0011511052105310549
:100D600009F471C08824992454018C189D08AE0898
:100D7000BF08681579058A059B050CF064C08A8157
:100D8000811161C0DDCFCCACDDACEEACFFACA70116
:100D90009601C701B6010E9411102B013C01C5014B
:100DA000B4010E94F30E20E030E040E850E40E94DD
:100DB000520F20E030E040E85FE30E9411109B01F9
:100DC000AC01C301B2010E947D109B01AC01C701BF
:100DD000B6010E9410103B016C01FE01E05CFF4F68
:100DE000E080F180028113819701A8010E94251102
:100DF000181614F473018601C701D8018CAF9DAF9A
:100E0000AEAFBFAF3AC00CA91DA92EA93FA91C14B3
:100E10001D041E041F040CF468CF101611061206E0
:100E200013060CF099CF0027112798010C191D0902
:100E30002E093F0960177107820793070CF062CFF4
:100E40002A8121115FCF8CA89DA8AEA8BFA88114CC
:100E50009104A104B10409F096CF88AD99ADAAAD73
:100E6000BBAD8CAF9DAFAEAFBFAF81E01C141D0416
:100E70001E041F040CF080E08A833FEF831A930A5C
:100E8000A30AB30A8CAA9DAAAEAABFAACCACDDACB9
:100E9000EEACFFACC701B6010E94F6106CA37DA3B7
:100EA0008EA39FA3A701960160E074E284E799E412
:100EB0000E947D106C8B7D8B8E8B9F8B2A812111E4
:100EC00003CF90586C8B7D8B8E8B9F8BFDCECF92FA
:100ED000DF92EF92FF92CF93DF93EC018CA19DA163
:100EE000AEA1BFA1892B8A2B8B2B99F10E94D6032F
:100EF0006B017C0188A599A5AAA5BBA5B701A60190
:100F0000481B590B6A0B7B0B8CA19DA1AEA1BFA105
:100F1000481759076A077B07E0F08C859D85AE85E9
:100F2000BF852A812223A9F10196A11DB11D8C87BD
:100F30009D87AE87BF874C855D856E857F85CE0199
:100F40000E94CB05C8A6D9A6EAA6FBA6CE010E94A0
:100F5000150620E030E0A9016C897D898E899F8982
:100F60000E94EC0E8111BACF488959896A897B8920
:100F70008C859D85AE85BF85481759076A077B0715
:100F800009F0ACCFDF91CF91FF90EF90DF90CF9041
:100F900008950197A109B109CACF8F929F92AF928C
:100FA000BF920F931F93CF93DF93CDB7DEB7A19777
:100FB0000FB6F894DEBF0FBECDBF19A2423008F4C1
:100FC0004AE08E010F5D1F4F842E912CB12CA12C75
:100FD000A50194010E948511E62FB901CA01EA30EA
:100FE00044F5E05DD801EE938D01232B242B252BB6
:100FF00079F790E080E0109769F0FD010190002002
:10100000E9F73197AF014A1B5B0BBD0189E892E01C
:101010000E94BB01A1960FB6F894DEBF0FBECDBFF4
:10102000DF91CF911F910F91BF90AF909F908F90C4
:101030000895E95CD7CF42E050E063E372E089E8CD
:1010400092E00C94BB01CF93DF93FC014481558166
:101050006081718189E892E00E94BB01EC010E94ED
:101060001B088C0F9D1FDF91CF910895CF92DF92C7
:10107000EF92FF92CF93DF936C01990FEE08FF0878
:10108000F7FE19C06DE289E892E00E949102EC013E
:1010900066277727CB016C197D098E099F094AE0E5
:1010A0000E94CD078C0F9D1FDF91CF91FF90EF9095
:1010B000DF90CF9008954AE0C701B601DF91CF914C
:1010C000FF90EF90DF90CF900C94CD07CF93DF93FC
:1010D000EC0188819981009711F00E946A121982AF
:1010E00018821D821C821B821A82DF91CF91089583
:1010F000FC0180819181009711F00C946A1208958F
:101100000F931F93CF93DF93EC0188819981009710
:1011100059F02A813B812617370730F081E0DF91B3
:10112000CF911F910F9108958B016F5F7F4F0E94A8
:10113000F312009759F0998388831B830A832C81CB
:101140003D81232B59F7FC011082E8CF80E0E7CFE7
:10115000EF92FF920F931F93CF93DF936115710569
:1011600041F480E0DF91CF911F910F91FF90EF90BC
:10117000089541155105B1F07B01EC010C811D81F1
:10118000040F151FB8010E948008882351F328819D
:1011900039818C819D81B701820F931F0E94E613D4
:1011A0001D830C8381E0DECFEF92FF920F931F939C
:1011B000CF93DF9300D000D01F921F92CDB7DEB740
:1011C0007C01CB014AE08E010F5F1F4FB8010E94E6
:1011D000A20EF80101900020E9F73197AF01401B02
:1011E000510BB801C7010E94A808811103C0C701B3
:1011F0000E946608C70128960FB6F894DEBF0FBE9E
:10120000CDBFDF91CF911F910F91FF90EF90089587
:10121000CF93DF93EC01FB0101900020E9F73197B8
:10122000AF01461B570B0E94A808811103C0CE01D5
:101230000E946608CE01DF91CF910895EF92FF9250
:101240000F931F93CF93DF93EC017B018A01BA01C7
:101250000E94800881110BC0CE010E946608CE0159
:10126000DF91CF911F910F91FF90EF9008951D8313
:101270000C83B701888199810E94E613F0CFFB01AE
:1012800001900020E9F73197AF01461B570B0C94F2
:101290001E09CF92DF92EF92FF920F931F93CF938D
:1012A000DF93CDB7DEB72C970FB6F894DEBF0FBE35
:1012B000CDBF8C017B0188EC809F6001819FD00CA9
:1012C00011241A8219821C821B821E821D8266E3EF
:1012D00072E0CE0101960E943F0918861F821A868D
:1012E00019861C861B8669817A816115710531F02A
:1012F0004D815E81CE0107960E941E09B801CE0184
:1013000007960E94D40861E472E00E940809B601C1
:101310000E94D40864E472E00E9408090E94230835
:10132000CE0107960E947808CE0101960E947808A7
:10133000C601DD0CAA0BBB0B21E0E216F10481F51E
:101340004091BE035091BF036091C0037091C103EF
:1013500084179507A607B70761F08093BE039093A3
:10136000BF03A093C003B093C1038EEA93E00E9431
:1013700015068EEA93E00E9467071093840200939B
:1013800083022C960FB6F894DEBF0FBECDBFDF915F
:10139000CF911F910F91FF90EF90DF90CF90089524
:1013A00022E0E216F10411F540917A0350917B039B
:1013B00060917C0370917D0384179507A607B7079A
:1013C00061F080937A0390937B03A0937C03B093A6
:1013D0007D038AE693E00E9415068AE693E00E9468
:1013E00067071093820200938102CBCF40913603AE
:1013F0005091370360913803709139038417950732
:10140000A607B70761F08093360390933703A09344
:101410003803B093390386E293E00E94150686E212
:1014200093E00E9467071093800200937F02A9CF88
:101430000F931F93CF93DF931F921F92CDB7DEB709
:101440008C01FC0111821082138212821582148297
:1014500065E372E00E943F090E940B0297FD0EC0F7
:101460008A30910559F089831A8241E050E0BE012B
:101470006F5F7F4FC8010E94A808EECFC8010F9090
:101480000F90DF91CF911F910F9108954F925F922E
:101490006F927F928F929F92AF92BF92CF92DF9284
:1014A000EF92FF92CF93DF93EC016A017B0120E082
:1014B00030E0A901CB01B6010E94EC0E87FF04C009
:1014C000F7FAF094F7F8F0948C8C9D8CAE8CBF8C6E
:1014D000A7019601C501B4010E94EC0E882309F40E
:1014E00049C06CA97DA98EA99FA90E94F30E2B016A
:1014F0003C01A7019601C501B4010E947D109B012A
:10150000AC01C301B2010E94520F0E94EF106CABFC
:101510007DAB8EAB9FABA701960160E070E080E0F1
:1015200090E40E947D100E94301126E53EE04DE2DD
:101530005FE30E94520F20E034E244E759E40E9446
:10154000520F68AF79AF8AAF9BAFCC8EDD8EEE8E37
:10155000FF8ECE01DF91CF91FF90EF90DF90CF9083
:10156000BF90AF909F908F907F906F905F904F90C3
:101570000C941506DF91CF91FF90EF90DF90CF9004
:10158000BF90AF909F908F907F906F905F904F90A3
:101590000895CF93DF93EC018BE092E099838883E9
:1015A00081E08B831C861D861E861F86188A198AF9
:1015B0001A8A1B8A1C8A1D8A1E8A1F8A80E090E074
:1015C000A0E8BFE3888F998FAA8FBB8F1C8E1D8EDA
:1015D0001E8E1F8E88A399A3AAA3BBA31CA21DA223
:1015E0001EA21FA221E030E03DA72CA72FEF2FA7BE
:1015F00018A619A61AA61BA66C834D8324E02E8379
:1016000025E02F831EA61CAA1DAA1EAA1FAA18AE7B
:1016100019AE1AAE1BAE1CAE1DAE1EAE1FAEFE0145
:10162000E05CFF4F80839183A283B3831A82188684
:1016300019861A861B86CE010E94FB0340E050E00B
:1016400060E87FE3CE01DF91CF910C94460A1F92B0
:101650000F920FB60F9211240BB60F922F933F9358
:101660004F935F936F937F938F939F93AF93BF93AA
:10167000EF93FF9389E892E00E946F02FF91EF9150
:10168000BF91AF919F918F917F916F915F914F919A
:101690003F912F910F900BBE0F900FBE0F901F9098
:1016A00018951F920F920FB60F9211240BB60F923E
:1016B0002F938F939F93EF93FF93E0919902F09173
:1016C0009A028081E0919F02F091A00282FD1DC0EC
:1016D00090818091A2028F5F8F732091A302821765
:1016E00041F0E091A202F0E0E757FD4F958F809323
:1016F000A202FF91EF919F918F912F910F900BBEBE
:101700000F900FBE0F901F9018958081F2CF1F92FF
:101710000F920FB60F9211242F933F938F939F93A5
:10172000AF93BF938091850290918602A09187022A
:10173000B091880230917A0223E0230F2D3758F5BB
:101740000196A11DB11D20937A028093850290938A
:101750008602A0938702B093880280917B029091C9
:101760007C02A0917D02B0917E020196A11DB11D67
:1017700080937B0290937C02A0937D02B0937E02C3
:10178000BF91AF919F918F913F912F910F900FBE7D
:101790000F901F90189526E8230F0296A11DB11DEA
:1017A000D2CFE9E8F2E01382128288EE93E0A0E063
:1017B000B0E084839583A683B78385E292E091832A
:1017C000808385EC90E09587848784EC90E0978710
:1017D000868780EC90E0918B808B81EC90E0938BFE
:1017E000828B82EC90E0958B848B86EC90E0978BDB
:1017F000868B118E128E138E148EE2EFF3E085E04D
:1018000090E09183808382E090E09383828388ECF0
:1018100090E09583848345E062E08EEA93E00E9445
:10182000C90A46E063E08AE693E00E94C90A47E0FD
:1018300064E086E293E00C94C90ACF93DF93CDB7BE
:10184000DEB762970FB6F894DEBF0FBECDBF7894B7
:1018500084B5826084BD84B5816084BD85B58260B5
:1018600085BD85B5816085BD80916E008160809366
:101870006E001092810080918100826080938100CF
:1018800080918100816080938100809180008160DF
:10189000809380008091B10084608093B10080913A
:1018A000B00081608093B00080919100826080934D
:1018B00091008091910081608093910080919000CF
:1018C0008160809390008091A10082608093A1004C
:1018D0008091A10081608093A1008091A00081602F
:1018E0008093A000809121018260809321018091EA
:1018F000210181608093210180912001816080938A
:10190000200180917A00846080937A0080917A002F
:10191000826080937A0080917A00816080937A005F
:1019200080917A00806880937A001092C10085E0EF
:101930000E949C0182E00E949C01E0919902F0913A
:101940009A0282E08083E0919502F09196021082E3
:10195000E0919702F09198028FEC80831092A1029F
:10196000E0919D02F0919E0286E08083E0919B02CF
:10197000F0919C02808180618083E0919B02F091D4
:101980009C02808188608083E0919B02F0919C02A0
:10199000808180688083E0919B02F0919C0280812D
:1019A0008F7D80830091F6031091F703E090F4039C
:1019B000F090F503C090F203D090F30318861F82D5
:1019C0001A8619861C861B8666E472E0CE0107968D
:1019D0000E943F091A8219821C821B821E821D826C
:1019E0006F8178856115710531F04B855C85CE017D
:1019F00001960E941E09B601CE0101960E94D408EC
:101A00006DE472E00E940809B7010E94D40865E500
:101A100072E00E940809B8010E94D4080E942308BD
:101A2000CE0101960E947808CE0107960E947808A0
:101A300020E030E041EE54E46091C6037091C703AA
:101A40008091C8039091C9030E94EC0E882309F489
:101A500053C080E090E0A1EEB4E48093C60390937D
:101A6000C703A093C803B093C9038EE893EEAAE01E
:101A7000B4E48093EE039093EF03A093F003B0934C
:101A8000F1038091E2039091E303A091E403B0910C
:101A9000E503181619061A061B0674F56091C203B1
:101AA0007091C3038091C4039091C5039B01AC0165
:101AB0000E94520F6B017C016091CA037091CB03AD
:101AC0008091CC039091CD039B01AC010E94111039
:101AD0009B01AC01C701B6010E947D100E94EF106E
:101AE0006093E2037093E3038093E4039093E50330
:101AF0008EEA93E00E94150640E050E068E474E44A
:101B00008EEA93E00E94460A95E0792E0BE91FE0E9
:101B100080910002882349F160E08091F2030E94E5
:101B20004A03F12CE12C2091F6033091F703729EC9
:101B3000C001739E900D1124E816F906A4F461E02B
:101B40008091F4030E944A03C8010197F1F760E015
:101B50008091F4030E944A03C8010197F1F72FEF27
:101B6000E21AF20AE0CF1092000289E892E00E94A5
:101B7000590202970CF4B8C0CE010D960E94180AC3
:101B80001A8219821C821B821E821D8265E672E007
:101B9000CE0101960E943F0918861F821A86198677
:101BA0001C861B8669817A816115710531F04D8132
:101BB0005E81CE0107960E941E0949895A896D856A
:101BC0007E85CE0107960E94A808811104C0CE012F
:101BD00007960E946608CE0107960E942308CE0150
:101BE00007960E947808CE0101960E947808CE01DF
:101BF00001960E94180A89819A81C12CD12C760104
:101C0000009719F00E947B0E6B015601CE010196E0
:101C10000E94780889899A89892B09F468C08D8483
:101C20009E846DE672E0C4010E94DD1361E070E005
:101C3000892B51F063E772E0C4010E94DD13892B08
:101C400009F055C062E070E0C6010E94490988E0D1
:101C500092E00E94DE0280918302909184020E94B1
:101C6000360880E092E00E94DE028091810290912D
:101C700082020E94360888EF91E00E94DE02809185
:101C80007F02909180020E94360886EF91E00E94C8
:101C9000DE020E941B080E94D6036B017C0188EEC5
:101CA000882E83E0982EA12CB12C0E94D6036C19AB
:101CB0007D098E099F09683E734081059105A8F34F
:101CC00081E0881A9108A108B10828EEC20E23E02D
:101CD000D21EE11CF11C81149104A104B10429F766
:101CE000CE010D960E9478080E94190311CF63E07F
:101CF00070E0C501AACF1F93FC0199278827BC017A
:101D0000E89411911032E9F3193010F01E30C8F345
:101D10001B3251F01D3249F4689406C00E94AD0E8A
:101D2000610F711D811D911D119110531A30B0F377
:101D30003EF490958095709561957F4F8F4F9F4FA2
:101D40001F910895BB274A3031F4992322F4BDE254
:101D5000909581959F4F0C94C30E592F482F372F84
:101D6000262F660F771F881F991F660F771F881F02
:101D7000991F620F731F841F951F660F771F881F9F
:101D8000991F0895BB27FB015527AA27880F991F84
:101D9000AA1FA41710F0A41B83955051B9F7A05D9A
:101DA000AA3308F0A95DA193009779F7B111B19317
:101DB0001192CB010C94DC0EDC01FC01672F7191B8
:101DC0007723E1F7329704C07C916D937083629121
:101DD000AE17BF07C8F308950E942E0F08F481E0E4
:101DE0000895E89409C097FB3EF49095809570950E
:101DF00061957F4F8F4F9F4F9923A9F0F92F96E957
:101E0000BB279395F695879577956795B795F111CB
:101E1000F8CFFAF4BB0F11F460FF1BC06F5F7F4F68
:101E20008F4F9F4F16C0882311F096E911C077237A
:101E300021F09EE8872F762F05C0662371F096E883
:101E4000862F70E060E02AF09A95660F771F881F52
:101E5000DAF7880F9695879597F90895990F0008F6
:101E6000550FAA0BE0E8FEEF16161706E807F9076C
:101E7000C0F012161306E407F50798F0621B730B07
:101E8000840B950B39F40A2661F0232B242B252B88
:101E900021F408950A2609F4A140A6958FEF811D2B
:101EA000811D08950E94650F0C94D60F0E94C80FE3
:101EB00038F00E94CF0F20F0952311F00C94BF0F43
:101EC0000C94C50F11240C940A100E94E70F70F3B4
:101ED000959FC1F3950F50E0551F629FF001729FCF
:101EE000BB27F00DB11D639FAA27F00DB11DAA1FDE
:101EF000649F6627B00DA11D661F829F2227B00D2B
:101F0000A11D621F739FB00DA11D621F839FA00DB5
:101F1000611D221F749F3327A00D611D231F849F05
:101F2000600D211D822F762F6A2F11249F5750405C
:101F30009AF0F1F088234AF0EE0FFF1FBB1F661FD7
:101F4000771F881F91505040A9F79E3F510580F0A0
:101F50000C94BF0F0C940A105F3FE4F3983ED4F347
:101F6000869577956795B795F795E7959F5FC1F744
:101F7000FE2B880F911D9695879597F9089597F9EF
:101F80009F6780E870E060E008959FEF80EC08951F
:101F900000240A9416161706180609060895002448
:101FA0000A9412161306140605060895092E0394C2
:101FB000000C11F4882352F0BB0F40F4BF2B11F436
:101FC00060FF04C06F5F7F4F8F4F9F4F089557FD95
:101FD0009058440F551F59F05F3F71F04795880F97
:101FE00097FB991F61F09F3F79F08795089512162E
:101FF00013061406551FF2CF4695F1DF08C01616DA
:1020000017061806991FF1CF86957105610508948A
:102010000895E894BB2766277727CB0197F90895A1
:102020005058BB27AA270E9428100C94D60F0E9454
:10203000C80F38F00E94CF0F20F039F49F3F19F4F9
:1020400026F40C94C50F0EF4E095E7FB0C94BF0F3B
:10205000E92F0E94E70F58F3BA1762077307840746
:10206000950720F079F4A6F50C9409100EF4E0958C
:102070000B2EBA2FA02D0B01B90190010C01CA0142
:10208000A0011124FF27591B99F0593F50F4503EED
:1020900068F11A16F040A22F232F342F4427585FDF
:1020A000F3CF469537952795A795F0405395C9F7F7
:1020B0007EF41F16BA0B620B730B840BBAF09150AF
:1020C000A1F0FF0FBB1F661F771F881FC2F70EC04E
:1020D000BA0F621F731F841F48F487957795679521
:1020E000B795F7959E3F08F0B0CF9395880F08F00D
:1020F0009927EE0F9795879508950E9491100C945B
:10210000D60F0E94CF0F58F00E94C80F40F029F45C
:102110005F3F29F00C94BF0F51110C940A100C94DE
:10212000C50F0E94E70F68F39923B1F3552391F38C
:10213000951B550BBB27AA2762177307840738F036
:102140009F5F5F4F220F331F441FAA1FA9F335D093
:102150000E2E3AF0E0E832D091505040E695001C47
:10216000CAF72BD0FE2F29D0660F771F881FBB1F01
:10217000261737074807AB07B0E809F0BB0B802DDF
:10218000BF01FF2793585F4F3AF09E3F510578F00B
:102190000C94BF0F0C940A105F3FE4F3983ED4F305
:1021A000869577956795B795F7959F5FC9F7880FDF
:1021B000911D9695879597F90895E1E0660F771F31
:1021C000881FBB1F621773078407BA0720F0621BC2
:1021D000730B840BBA0BEE1F88F7E09508950E94ED
:1021E000F6106894B1110C940A1008950E94EF0F34
:1021F00088F09F5798F0B92F9927B751B0F0E1F0C8
:10220000660F771F881F991F1AF0BA95C9F714C077
:10221000B13091F00E940910B1E008950C940910BA
:10222000672F782F8827B85F39F0B93FCCF38695B0
:1022300077956795B395D9F73EF49095809570950D
:1022400061957F4F8F4F9F4F08950E942E0F08F486
:102250008FEF089519F416F40C94C50F0C947011B7
:102260000E94EF0FB8F39923C9F3B6F39F57550BAC
:1022700087FF0E947E110024A0E640EA900180586A
:102280005695979528F4805C660F771F881F20F07D
:1022900026173707480730F4621B730B840B20297D
:1022A00031294A2BA69517940794202531254A27D2
:1022B00058F7660F771F881F20F026173707480743
:1022C00030F4620B730B840B200D311D411DA09562
:1022D00081F7B901842F9158880F969587950895B5
:1022E0009F3F31F0915020F4879577956795B7958A
:1022F000880F911D9695879597F9089591505040B4
:10230000660F771F881FD2F70895A1E21A2EAA1B25
:10231000BB1BFD010DC0AA1FBB1FEE1FFF1FA21795
:10232000B307E407F50720F0A21BB30BE40BF50B92
:10233000661F771F881F991F1A9469F7609570951B
:10234000809590959B01AC01BD01CF010895052EAC
:1023500097FB1EF400940E94BE1157FD07D00E9407
:10236000851107FC03D04EF40C94BE115095409596
:10237000309521953F4F4F4F5F4F08959095809531
:10238000709561957F4F8F4F9F4F0895EE0FFF1F00
:10239000881F8BBF0790F691E02D19940F931F9320
:1023A000CF93DF938230910510F482E090E0E091CA
:1023B000FA03F091FB0330E020E0B0E0A0E03097BA
:1023C00099F42115310509F44AC0281B390B243032
:1023D0003105D8F58A819B816115710589F1FB0171
:1023E00093838283FE0111C0408151810281138158
:1023F00048175907E0F04817590799F4109761F00A
:1024000012960C93129713961C933296CF01DF917C
:10241000CF911F910F9108950093FA031093FB033E
:10242000F4CF2115310551F04217530738F0A901B7
:10243000DB019A01BD01DF01F801C1CFEF01F9CF46
:102440009093FB038093FA03CDCFFE01E20FF31FBD
:10245000819391932250310939832883D7CF2091DA
:10246000F8033091F903232B41F4209103023091BA
:1024700004023093F9032093F80320910102309174
:1024800002022115310541F42DB73EB740910502F6
:1024900050910602241B350BE091F803F091F903EB
:1024A000E217F307A0F42E1B3F0B2817390778F02B
:1024B000AC014E5F5F4F2417350748F04E0F5F1F8A
:1024C0005093F9034093F803819391939FCFF0E0E9
:1024D000E0E09CCFCF93DF930097E9F0FC013297C7
:1024E00013821282A091FA03B091FB03ED0130E058
:1024F00020E01097A1F420813181820F931F209159
:10250000F8033091F9032817390709F061C0F093F7
:10251000F903E093F803DF91CF910895EA01CE1714
:10252000DF07E8F54A815B819E0141155105B1F74E
:10253000E901FB83EA8349915991C40FD51FEC1738
:10254000FD0761F4808191810296840F951FE90156
:1025500099838883828193819B838A83F0E0E0E082
:1025600012968D919C9113970097B9F52D913C91FE
:102570001197CD010296820F931F2091F80330919D
:10258000F9032817390739F6309751F51092FB03F4
:102590001092FA03B093F903A093F803BCCFD3834E
:1025A000C28340815181840F951FC817D90761F4F8
:1025B0004E5F5F4F88819981480F591F5183408337
:1025C0008A819B81938382832115310509F0B0CFE5
:1025D000F093FB03E093FA039ECFFD01DC01C0CF33
:1025E00013821282D7CF4F925F926F927F928F9217
:1025F0009F92AF92BF92CF92DF92EF92FF920F9392
:102600001F93CF93DF938C01009799F4CB01DF9157
:10261000CF911F910F91FF90EF90DF90CF90BF90DF
:10262000AF909F908F907F906F905F904F900C94A1
:10263000CE11FC01E60FF71F9C0122503109E21771
:10264000F30708F4AEC0D901CD91DC911197C617FC
:10265000D70720F1C530D10578F0CE010497861751
:10266000970750F0C61BD70B2297C193D1936D9358
:102670007C93CF010E946A12C801DF91CF911F9114
:102680000F91FF90EF90DF90CF90BF90AF909F9011
:102690008F907F906F905F904F9008955B01AC1A80
:1026A000BD0A4C018C0E9D1EA091FA03B091FB0354
:1026B000512C412CF12CE12C109731F58091F8032D
:1026C0009091F9038815990509F05CC046165706E4
:1026D00008F058C08091010290910202009741F4E5
:1026E0008DB79EB74091050250910602841B950B51
:1026F000E817F90708F055C0F093F903E093F803E1
:10270000F90171836083B8CF8D919C9111971296D6
:102710006C90129713967C901397A815B90559F5EC
:102720006C0142E0C40ED11CCA14DB0420F1AC01E0
:102730004A195B09DA011296159780F0628273825A
:1027400051834083D9016D937C93E114F10471F0BE
:10275000D7011396FC93EE9312978ECF22968C0F8F
:102760009D1FF90191838083F301EFCFF093FB0369
:10277000E093FA0381CF4816590608F42C017D0135
:10278000D3019ACFCB010E94CE117C01009749F072
:10279000AE01B8010E94D413C8010E946A128701D9
:1027A0006BCF10E000E068CFFB01DC0102C00190BC
:1027B0000D9241505040D8F70895FB01DC018D91F6
:1027C000019080190110D9F3990B0895FB01DC01E8
:1027D00001900D920020E1F70895F894FFCF0100D9
:1027E00000FC038000000000002904FB038D05CBE2
:1027F00005770545052405F004CF04790446040057
:102800000000009102BB01E801F9025902F7014BF7
:10281000020D0A006C616E676B6168203A2000202F
:102820002800290020444952203A002053544550A2
:10283000203A002053544550524F544154494F4E72
:10284000203A006F72646572203A0078617869738B
:08285000007961786973000052
:020000040003F7
:10E000000D9489F10D94B2F10D94B2F10D94B2F129
:10E010000D94B2F10D94B2F10D94B2F10D94B2F1F0
:10E020000D94B2F10D94B2F10D94B2F10D94B2F1E0
:10E030000D94B2F10D94B2F10D94B2F10D94B2F1D0
:10E040000D94B2F10D94B2F10D94B2F10D94B2F1C0
:10E050000D94B2F10D94B2F10D94B2F10D94B2F1B0
:10E060000D94B2F10D94B2F10D94B2F10D94B2F1A0
:10E070000D94B2F10D94B2F10D94B2F10D94B2F190
:10E080000D94B2F10D94B2F10D94B2F10D94B2F180
:10E090000D94B2F10D94B2F10D94B2F10D94B2F170
:10E0A0000D94B2F10D94B2F10D94B2F10D94B2F160
:10E0B0000D94B2F10D94B2F10D94B2F10D94B2F150
:10E0C0000D94B2F10D94B2F10D94B2F10D94B2F140
:10E0D0000D94B2F10D94B2F10D94B2F10D94B2F130
:10E0E0000D94B2F141546D656761323536300041AF
:10E0F000726475696E6F206578706C6F72657220DE
:10E1000073746B3530305632206279204D4C530099
:10E11000426F6F746C6F616465723E004875683F52
:10E1200000436F6D70696C6564206F6E203D200048
:10E130004350552054797065202020203D20005FF9
:10E140005F4156525F415243485F5F3D2000415658
:10E1500052204C696243205665723D20004743437C
:10E160002056657273696F6E203D20004350552024
:10E1700049442020202020203D20004C6F7720663D
:10E18000757365202020203D20004869676820665F
:10E190007573652020203D200045787420667573D6
:10E1A00065202020203D20004C6F636B2066757336
:10E1B000652020203D20004D617220203720323024
:10E1C000313300312E362E3800342E332E350056A2
:10E1D00023202020414444522020206F7020636F70
:10E1E00064652020202020696E73747275637469E1
:10E1F0006F6E2061646472202020496E74657272B3
:10E20000757074006E6F20766563746F7200726A49
:10E210006D702020006A6D70200057686174207056
:10E220006F72743A00506F7274206E6F7420737541
:10E2300070706F72746564004D7573742062652030
:10E2400061206C6574746572002000577269747483
:10E25000696E672045450052656164696E672045B7
:10E26000450045452065727220636E743D00504F35
:10E27000525400303D5A65726F2061646472003FF1
:10E280003D43505520737461747300403D454550C3
:10E29000524F4D207465737400423D426C696E6B41
:10E2A000204C454400453D44756D70204545505215
:10E2B0004F4D00463D44756D7020464C415348001B
:10E2C000483D48656C70004C3D4C69737420492F83
:10E2D0004F20506F72747300513D51756974005234
:10E2E0003D44756D702052414D00563D73686F7707
:10E2F00020696E7465727275707420566563746FF0
:10E30000727300593D506F727420626C696E6B00BD
:10E310002A0011241FBECFEFD1E2DEBFCDBF01E046
:10E320000CBF12E0A0E0B2E0EEE1FDEF03E00BBFB6
:10E3300002C007900D92A030B107D9F712E0A0E01B
:10E34000B2E001C01D92AE30B107E1F70F9460F367
:10E350000D948DFE01E20EBF0FEF0DBF11241FBE05
:10E360000D9460F30D9400F020E030E040ED57E0B4
:10E3700005C0FA013197F1F72F5F3F4F2817390792
:10E38000C0F308959C01260F311DC901A0E0B0E043
:10E390002F5F3F4FABBFFC018791882361F08093D3
:10E3A000C6008091C00086FFFCCF8091C0008064D1
:10E3B0008093C000EACF08958DE08093C6008091DD
:10E3C000C00086FFFCCF8091C00080648093C000B5
:10E3D0008AE08093C6008091C00086FFFCCF8091C8
:10E3E000C00080648093C00008950F94C2F10F9420
:10E3F000DCF10895FC019081992359F09093C600B7
:10E400008091C00086FFFCCF8091C0008064809323
:10E41000C0003196992379F70895282F982F929567
:10E420009F70892F805D8A3308F0895F8093C600D2
:10E430008091C00086FFFCCF8091C00080648093F3
:10E44000C000822F8F70982F905D9A3308F0995FEB
:10E450009093C6008091C00086FFFCCF8091C000E1
:10E4600080648093C00008959C01FB01853691056E
:10E470001CF46330710594F0C90164E670E00F94F8
:10E480002EFE605D7F4F6093C6008091C00086FFC6
:10E49000FCCF8091C00080648093C0002B30310598
:10E4A00014F43297B4F0C90164E670E00F942EFEC4
:10E4B0006AE070E00F942EFE605D7F4F6093C600AF
:10E4C0008091C00086FFFCCF8091C0008064809363
:10E4D000C000C9016AE070E00F942EFEC0968093E0
:10E4E000C6008091C00086FFFCCF8091C000806490
:10E4F0008093C00008951F93182F8EE692EE60E07F
:10E500000F94C2F11093C6008091C00086FFFCCF2B
:10E510008091C00080648093C0000F94DCF11F9153
:10E5200008952F923F924F925F926F927F928F92B7
:10E530009F92AF92BF92CF92DF92EF92FF920F9392
:10E540001F93DF93CF93CDB7DEB762970FB6F894E2
:10E55000DEBF0FBECDBF382E622ECA01DB015C01CB
:10E560006D01772420E2222E2E010894411C511CBB
:10E570008BC081E0A81680E0B80681E0C80680E084
:10E58000D80628F0C601AA27BB270F940DF2BB2797
:10E59000AD2D9C2D8B2D0F940DF28A2D0F940DF225
:10E5A0002092C6008091C00086FFFCCF8091C00001
:10E5B00080648093C0009DE29093C6008091C0006B
:10E5C00086FFFCCF8091C00080648093C0002092C1
:10E5D000C6008091C00086FFFCCF8091C00080649F
:10E5E0008093C00019828601750188249924A1E0D6
:10E5F0003A1651F03A1620F0B2E03B1661F409C029
:10E600000BBFF701779007C0C7010F9477FE782EF4
:10E6100002C0F7017080872D0F940DF22092C60082
:10E620008091C00086FFFCCF8091C0008064809301
:10E63000C000872D8052F401EF70F0708F3520F408
:10E64000E40DF51D708204C0E40DF51D8EE280839B
:10E650000894E11CF11C011D111D0894811C911CE2
:10E6600090E18916910409F0C2CF80E190E0A0E02A
:10E67000B0E0A80EB91ECA1EDB1E198AC2010F9493
:10E68000FAF10F94DCF16A94662009F072CF629679
:10E690000FB6F894DEBF0FBECDBFCF91DF911F91B3
:10E6A0000F91FF90EF90DF90CF90BF90AF909F9031
:10E6B0008F907F906F905F904F903F902F90089534
:10E6C0002F923F924F925F926F927F928F929F9282
:10E6D000AF92BF92CF92DF92EF92FF920F931F9370
:10E6E000DF93CF93CDB7DEB7CD53D1400FB6F894BB
:10E6F000DEBF0FBECDBF01E20EBF0FEF0DBF94B75F
:10E70000F894A89514BE80916000886180936000A1
:10E7100010926000789493FF05C0E0910002F091A0
:10E7200001021995279A2F9A8091C00082608093E8
:10E73000C00080E18093C40088E18093C1000000A4
:10E74000EE24FF24870144E0A42EB12CCC24DD2448
:10E7500024C0C5010197F1F70894E11CF11C011DCB
:10E76000111D21E2E2162EE4F20620E0020720E06D
:10E77000120718F031E0C32ED12CC801B70127ECE5
:10E780003BE140E050E00F9441FE611571058105C9
:10E79000910519F485B1805885B98091C00087FD35
:10E7A00003C0C114D104A9F2A6014F5F5F4FC25E3E
:10E7B000DE4F59834883CE51D140C25EDE4F8881FF
:10E7C0009981CE51D140019711F00D9410FEC05D9A
:10E7D000DE4F19821882C053D14060E0C15DDE4F28
:10E7E0001882CF52D14088249924C35DDE4F19820C
:10E7F0001882CD52D140C05EDE4F188219821A8233
:10E800001B82C052D140CE5CDE4F188219821A8220
:10E810001B82C253D140EE24FF2487010BBFF701B6
:10E8200007911691C45CDE4F19830883CC53D14005
:10E830000D940BFEC25EDE4F28813981CE51D1404E
:10E840002130310509F52091C600C25EDE4F1982E4
:10E850001882CE51D14022C02F5F3F4F4F4F5F4FA4
:10E86000213082E138078AE7480780E0580780F0C6
:10E87000C45CDE4FE881F981CC53D140EF5FFF4F9C
:10E8800019F0EE27FF27099420E030E040E050E047
:10E890008091C00087FFE0CF2091C600C35DDE4FAE
:10E8A00048815981CD52D1404F5F5F4FC35DDE4FEC
:10E8B00059834883CD52D140213209F063C64A3092
:10E8C000510508F05FC60894811C911C53E0851621
:10E8D000910409F059C600E010E018C081E280936D
:10E8E000C6008091C00086FFFCCF8091C00080648C
:10E8F0008093C0002F5F3F4F2931310579F70F9486
:10E90000DCF10F5F1F4F0530110519F020E030E0FA
:10E91000E5CF10920A0210920B0210920C02109294
:10E920000D02109206021092070210920802109235
:10E930000902109202021092030210920402109235
:10E9400005028FEE90EE60E00F94F5F180E191EE1C
:10E9500060E00F94C2F18091C00087FFFCCF9091DE
:10E96000C600903608F09F759032B8F09093C600BC
:10E970008091C00086FFFCCF8091C00080648093AE
:10E98000C000A0E2A093C6008091C00086FFFCCF2B
:10E990008091C00080648093C000983409F4D7C18E
:10E9A0009934B8F4923409F459C1933458F490333B
:10E9B00019F1903308F4E3C59F33A1F1903409F0C5
:10E9C000DEC5BDC0953409F470C1963409F0D7C5D1
:10E9D00098C1923509F42BC2933538F49C3409F46C
:10E9E000F5C1913509F0CBC518C2963509F445C279
:10E9F000993509F0C4C567C483E792EE62E00F94CD
:10EA0000F5F110920602109207021092080210927D
:10EA1000090210920A0210920B0210920C0210923C
:10EA20000D0213C18FE792EE62E00F94F5F18FEEC5
:10EA300090EE60E00F94F5F181E291EE60E00F94CA
:10EA4000C2F187EB91EE60E00F94F5F180E391EE77
:10EA500060E00F94C2F184EE90EE60E00F94F5F167
:10EA60008FE391EE60E00F94C2F186E090E061E008
:10EA700070E00F9434F20F94DCF18DE591EE60E0DC
:10EA80000F94C2F189EC91EE60E00F94F5F18EE401
:10EA900091EE60E00F94C2F183EC91EE60E00F9490
:10EAA000F5F18CE691EE60E00F94C2F18EE10F94E7
:10EAB0000DF288E90F940DF281E00F940DF20F949E
:10EAC000DCF18BE791EE60E00F94C2F119E0E0E039
:10EAD000F0E010935700E4918E2F0F940DF20F94F5
:10EAE000DCF18AE891EE60E00F94C2F1E3E0F0E03F
:10EAF00010935700E4918E2F0F940DF20F94DCF1D8
:10EB000089E991EE60E00F94C2F1E2E0F0E0109349
:10EB10005700E4918E2F0F940DF20F94DCF188EAE8
:10EB200091EE60E00F94C2F1E1E0F0E01093570045
:10EB30001491812F0F940DF20F94DCF107CF8BE825
:10EB400092EE62E00F94F5F18BE492EE60E00F94A8
:10EB5000F5F10F94DCF100E010E019C0C8016F2D51
:10EB60000F947FFEFF2031F489E492EE60E00F9471
:10EB7000C2F10BC0F092C6008091C00086FFFCCFAE
:10EB80008091C00080648093C0000F5F1F4FC80158
:10EB900081519F41A0E0B0E0ABBFFC01F790BAE229
:10EBA000FB1621F0E2E000301E07C1F60F94DCF105
:10EBB0000F94DCF187E592EE60E00F94F5F10F948D
:10EBC000DCF1CC24DD2400E010E01EC0C8010F946D
:10EBD00077FEF82E882331F489E492EE60E00F94FA
:10EBE000C2F10BC08093C6008091C00086FFFCCFAD
:10EBF0008091C00080648093C000FE1419F00894D6
:10EC0000C11CD11C0F5F1F4FC80181519F41A0E063
:10EC1000B0E0ABBFFC01E790FAE2EF1621F022E092
:10EC20000030120799F60F94DCF10F94DCF182E6C4
:10EC300092EE60E00F94C2F1C60161E070E00F94C3
:10EC400034F20F94DCF10F94DCF110920202109276
:10EC50000302109204021092050278CE89E992EE26
:10EC600062E00F94F5F1279A2F9A16C02F9880E052
:10EC700090E0E0EDF7E03197F1F7019684369105E9
:10EC8000C1F72F9A80E090E0E0EDF7E03197F1F7DF
:10EC9000019684369105C1F78091C00087FFE6CFC9
:10ECA0008091C00087FFFCCF64C485EA92EE62E0E9
:10ECB0000F94F5F140910202509103026091040219
:10ECC0007091050281E020E10F9491F2809102029F
:10ECD00090910302A0910402B091050280509F4FD1
:10ECE000AF4FBF4F8093020290930302A0930402A0
:10ECF000B093050280509041A040B04008F426CE69
:10ED0000A4CF83EB92EE62E00F94F5F140910602FE
:10ED100050910702609108027091090280E020E1A1
:10ED20000F9491F28091060290910702A09108023F
:10ED3000B091090280509F4FAF4FBF4F80930602A2
:10ED400090930702A0930802B0930902FFCD80ECD4
:10ED500092EE62E00F94F5F183E792EE60E00F949B
:10ED6000F5F18FE792EE60E00F94F5F18BE892EE0B
:10ED700060E00F94F5F189E992EE60E00F94F5F10F
:10ED800085EA92EE60E00F94F5F183EB92EE60E09D
:10ED90000F94F5F180EC92EE60E00F94F5F187ECC2
:10EDA00092EE60E00F94F5F188ED92EE60E00F9442
:10EDB000F5F18FED92EE60E00F94F5F18AEE92EEB0
:10EDC00060E00F94F5F183E093EEBDCD87EC92EE19
:10EDD00062E00F94F5F181E40F947BF282E40F94EA
:10EDE0007BF283E40F947BF284E40F947BF285E45E
:10EDF0000F947BF286E40F947BF287E40F947BF20E
:10EE000088E40F947BF28AE40F947BF28BE40F94F6
:10EE10007BF28CE40F947BF299CD88ED92EE62E068
:10EE20000F94F5F1772473948824992409C48FED05
:10EE300092EE62E00F94F5F140910A0250910B02BC
:10EE400060910C0270910D0282E020E10F9491F22A
:10EE500080910A0290910B02A0910C02B0910D02D8
:10EE600080509F4FAF4FBF4F80930A0290930B0289
:10EE7000A0930C02B0930D0269CD8AEE92EE62E08F
:10EE80000F94F5F184EE90EE60E00F94F5F18FECC5
:10EE900091EE60E00F94F5F1662477244301CC5D98
:10EEA000DE4F19821882C452D140D401C301B695F5
:10EEB000A79597958795CA5DDE4F88839983AA8326
:10EEC000BB83C652D140CC5DDE4FA881B981C4520C
:10EED000D1401196CC5DDE4FB983A883C452D14096
:10EEE000CD0162E070E00F9434F2B0E2B093C6005E
:10EEF0008091C00086FFFCCF8091C0008064809329
:10EF0000C000EDE2E093C6008091C00086FFFCCF18
:10EF10008091C00080648093C000F0E2F093C6004E
:10EF20008091C00086FFFCCF8091C00080648093F8
:10EF3000C000CA5DDE4FE880F9800A811B81C6529D
:10EF4000D140BB27A12F902F8F2D0F940DF2CA5DBA
:10EF5000DE4F8881C652D1400F940DF2B0E2FB2EF5
:10EF6000F092C6008091C00086FFFCCF8091C00067
:10EF700080648093C0000DE30093C6008091C000C0
:10EF800086FFFCCF8091C00080648093C00010E2B7
:10EF90001093C6008091C00086FFFCCF8091C00016
:10EFA00080648093C0008BBEF3012791C65DDE4F65
:10EFB0002883CA52D140A22EBB24CC24DD2408943D
:10EFC000611C711C811C911C8BBEF3018791282E42
:10EFD0003324442455240894611C711C811C911C09
:10EFE0008BBEF3013791C55DDE4F3883CB52D140E4
:10EFF0000894611C711C811C911C8BBEF30147910C
:10F00000C45DDE4F4883CC52D140ADEFEA2EAFEF66
:10F01000FA2EAFEF0A2FAFEF1A2F6E0C7F1C801E57
:10F02000911E142D032DF22CEE24EA0CFB1C0C1D5A
:10F030001D1D0F940DF220E22093C6008091C000A8
:10F0400086FFFCCF8091C00080648093C000C65DC5
:10F05000DE4F8881CA52D1400F940DF230E23093D6
:10F06000C6008091C00086FFFCCF8091C000806404
:10F070008093C000C45DDE4F8881CC52D1400F9494
:10F080000DF240E24093C6008091C00086FFFCCFA5
:10F090008091C00080648093C000C55DDE4F888190
:10F0A000CB52D1400F940DF250E25093C6008091A4
:10F0B000C00086FFFCCF8091C00080648093C000B8
:10F0C0008FEFE8168FEFF80680E0080780E018075A
:10F0D00031F484E092EE60E00F94C2F1DFC0D80119
:10F0E000C7018070907CA070B0708050904CA040A0
:10F0F000B040D1F52FEF3FE340E050E0E222F322B1
:10F1000004231523CA5DDE4FA880B980CA80DB8046
:10F11000C652D140AE0CBF1CC01ED11EAA0CBB1CD7
:10F12000CC1CDD1C8EE092EE60E00F94C2F1BB2798
:10F13000A12F902F8F2D0F940DF28E2D0F940DF285
:10F1400030E23093C6008091C00086FFFCCF8091F2
:10F15000C00080648093C0004EE34093C60080915D
:10F16000C00086FFFCCF87C08EE09EEFA0E0B0E03D
:10F17000E822F9220A231B239CE0E91694E9F90608
:10F1800090E0090790E0190709F088C0C45DDE4FE0
:10F19000A881CC52D140EA2EFF2400E010E0102FCD
:10F1A0000F2DFE2CEE24C55DDE4FB881CB52D14031
:10F1B000EB0EF11C011D111DD601C501817090706F
:10F1C000A070B070DC0199278827E80EF91E0A1F8D
:10F1D0001B1F20EF30E040E050E0A222B322C42207
:10F1E000D52241E1AA0CBB1CCC1CDD1C4A95D1F7F1
:10F1F000EA0CFB1C0C1D1D1D81E090E0A0E0B0E0BE
:10F20000282239224A225B2235E1220C331C441C7D
:10F21000551C3A95D1F7E20CF31C041D151D57013E
:10F220006801AA0CBB1CCC1CDD1C85E192EE60E0E1
:10F230000F94C2F1C801AA27BB270F940DF2BB2778
:10F24000A12F902F8F2D0F940DF28E2D0F940DF274
:10F2500090E29093C6008091C00086FFFCCF809121
:10F26000C00080648093C000AEE3A093C60080918C
:10F27000C00086FFFCCF8091C00080648093C000F6
:10F28000C601AA27BB270F940DF2BB27AD2D9C2DDD
:10F290008B2D0F940DF28A2D0F940DF20F94DCF14B
:10F2A000CC5DDE4FE881F981C452D140F99709F471
:10F2B0004DCBF4E0EF2EF12C012D112D6E0C7F1CA7
:10F2C000801E911EF2CD83E093EE62E00F94F5F183
:10F2D0008AE192EE60E00F94C2F18091C00087FF56
:10F2E000FCCF1091C6001F751093C6008091C0001E
:10F2F00086FFFCCF8091C00080648093C0000F9493
:10F30000DCF1812F81548A3108F036C1163409F4BA
:10F3100095C0173490F4133409F44EC0143430F40B
:10F320001134F1F0123409F01DC130C0143409F465
:10F3300059C0153409F016C16BC01A3409F4C4C0A1
:10F340001B3438F4173409F48FC0183409F00AC19B
:10F35000A1C01B3409F4D2C01C3409F003C1E8C0B9
:10F360008FEF81B90DC082B1809582B980E090E0C5
:10F37000E0EDF7E03197F1F70196883C9105C1F790
:10F380008091C00087FFEFCF12B8EFC08FEF84B934
:10F390000DC085B1809585B980E090E0E0EDF7E0A3
:10F3A0003197F1F70196883C9105C1F78091C00033
:10F3B00087FFEFCF15B8D9C08FEF87B90DC088B1DF
:10F3C000809588B980E090E0E0EDF7E03197F1F7C3
:10F3D0000196883C9105C1F78091C00087FFEFCF6F
:10F3E00018B8C3C08FEF8AB90DC08BB180958BB9A7
:10F3F00080E090E0E0EDF7E03197F1F70196883C8E
:10F400009105C1F78091C00087FFEFCF1BB8ADC059
:10F410008FEF8DB90DC08EB180958EB980E090E0F0
:10F42000E0EDF7E03197F1F70196883C9105C1F7DF
:10F430008091C00087FFEFCF1EB897C08FEF80BBD1
:10F440000DC081B3809581BB80E090E0E0EDF7E0F6
:10F450003197F1F70196883C9105C1F78091C00082
:10F4600087FFEFCF11BA81C08FEF83BB0DC084B38C
:10F47000809584BB80E090E0E0EDF7E03197F1F714
:10F480000196883C9105C1F78091C00087FFEFCFBE
:10F4900014BA6BC08FEF809301010FC080910201FD
:10F4A00080958093020180E090E0E0EDF7E03197F5
:10F4B000F1F70196883C9105C1F78091C00087FF64
:10F4C000EDCF1092020151C08FEF809304010FC065
:10F4D0008091050180958093050180E090E0E0ED4A
:10F4E000F7E03197F1F70196883C9105C1F78091DB
:10F4F000C00087FFEDCF1092050137C08FEF8093DA
:10F5000007010FC08091080180958093080180E079
:10F5100090E0E0EDF7E03197F1F70196883C910536
:10F52000C1F78091C00087FFEDCF109208011DC088
:10F530008FEF80930A010FC080910B01809580931B
:10F540000B0180E090E0E0EDF7E03197F1F70196F4
:10F55000883C9105C1F78091C00087FFEDCF1092E4
:10F560000B0103C085E292EEEEC98091C00087FFD7
:10F57000FCCF8091C600EAC988E392EEE4C98CE131
:10F5800091EEE1C988249924933011F1943028F444
:10F59000913089F09230B8F408C0953061F195301F
:10F5A000F0F0963009F048C043C02B3109F042C951
:10F5B00091E06BE13FC96227C15DDE4F2883CF52E6
:10F5C000D14092E037C9B22FA0E0622793E032C960
:10F5D000822F90E0A82BB92B622794E02BC92E3004
:10F5E00009F039C3622795E0C05DDE4F19821882A9
:10F5F000C053D1401FC9E1E0F0E0EC0FFD1FC05D3A
:10F60000DE4F08811981C053D140E00FF11F2083E4
:10F610000F5F1F4FC05DDE4F19830883C053D14079
:10F6200062270A171B0709F005C9D80196E002C92D
:10F63000261709F010C303C0973009F0FBC87724E0
:10F640009981933109F412C19431C8F4963009F4C8
:10F65000D8C0973050F4923009F406C1933009F4C1
:10F660006DC0913009F059C253C0913109F477C08F
:10F67000923108F0BBC0903109F04FC2F5C098310B
:10F6800009F487C0993150F4953109F4EFC09531F0
:10F6900008F4C6C1963109F040C2C2C19A3109F4DA
:10F6A0006CC09A3108F491C09B3109F45BC09D3164
:10F6B00009F033C29D81903359F48F81882311F46E
:10F6C0009EE11CC0813011F091E018C098E916C08D
:10F6D000892F807591F0903539F4E0E0F0E089E011
:10F6E0008093570094910AC0983539F4E3E0F0E034
:10F6F00089E080935700949101C090E01A821B82A8
:10F700008D818C831D829E831F8227E030E009C299
:10F710001A8288E08B8381E48C8386E58D8382E581
:10F720008E8389E48F8383E5888780E589878FE5E9
:10F730008A8782E38B872BE030E0F3C18A818139AD
:10F7400041F0823941F0803911F48FE005C080E04A
:10F7500003C082E001C08AE01A828B8344C0772410
:10F76000739482C08D81882311F48EE12CC0813086
:10F7700011F081E028C088E926C01A82E1E0F0E0BB
:10F7800089E08093570084918B831C8224E030E0D1
:10F79000C8C18B81803589F48C81883039F4E2E0EE
:10F7A000F0E089E08093570084910DC0E0E0F0E044
:10F7B00089E080935700849106C0E3E0F0E089E09F
:10F7C0008093570084911A82DFCF8D81836C99E0FA
:10F7D000E1E0F0E0082E90935700E89507B600FCB2
:10F7E000FDCF1A821B8223E030E09BC180EC8A832C
:10F7F000CE5CDE4F188219821A821B82C253D1401E
:10F800008EC18A8190E0A0E0B0E0582F44273327D2
:10F8100022278B8190E0A0E0B0E0DC0199278827C7
:10F82000282B392B4A2B5B2B8D8190E0A0E0B0E098
:10F83000282B392B4A2B5B2B8C8190E0A0E0B0E089
:10F84000BA2FA92F982F8827282B392B4A2B5B2BCF
:10F85000220F331F441F551FC05EDE4F288339839C
:10F860004A835B83C052D1401A8259C13A81C95C34
:10F87000DE4F3883C753D140CA5CDE4F1882C6536F
:10F88000D1408B81C82EDD24CA5CDE4F488159816E
:10F89000C653D140C42AD52A933109F082C0CE5C28
:10F8A000DE4F88819981AA81BB81C253D1408050AB
:10F8B000904CA340B04030F583E0CE5CDE4FE88052
:10F8C000F9800A811B81C253D140F70100935B008C
:10F8D00080935700E89507B600FCFDCFCE5CDE4F65
:10F8E000088119812A813B81C253D14000501F4FAA
:10F8F0002F4F3F4FCE5CDE4F088319832A833B8313
:10F90000C253D140C05EDE4F488159816A817B81FC
:10F91000C052D140DE011B9631E08C9111962C91A2
:10F9200011971296C75CDE4F2883C953D140C85C3B
:10F93000DE4F1882C853D14090E0C85CDE4FE881AA
:10F94000F981C853D1408E2B9F2B0C01FA01609393
:10F950005B0030935700E89511244E5F5F4F6F4F67
:10F960007F4F0EEFE02E0FEFF02ECE0CDF1CC114F8
:10F97000D10499F685E0C05EDE4F088119812A81A5
:10F980003B81C052D140F80120935B008093570027
:10F99000E89507B600FCFDCF81E180935700E8951C
:10F9A00035C0C05EDE4F88819981AA81BB81C0527B
:10F9B000D140B695A795979587957C018601ABE0D8
:10F9C000AA2EB12CAC0EBD1E0BC0D5016D915D01F0
:10F9D000C7010F947FFE0894E11CF11C01501040F8
:10F9E0000115110591F7A60160E070E0440F551F65
:10F9F000661F771FC05EDE4FE880F9800A811B8199
:10FA0000C052D1404E0D5F1D601F711F1A82C05E33
:10FA1000DE4F488359836A837B83C052D1407FC0C5
:10FA2000FA80C55CDE4FF882CB53D140C65CDE4F16
:10FA30001882CA53D1408B81C82EDD24C65CDE4FAC
:10FA400008811981CA53D140C02AD12A1A828981DA
:10FA5000BE016D5F7F4F843121F59601C05EDE4FA0
:10FA6000E880F9800A811B81C052D1400BBFF701A9
:10FA700087919691DB018C9311969C936E5F7F4FDB
:10FA8000D801C7010296A11DB11DC05EDE4F88835B
:10FA90009983AA83BB83C052D14022503040F1F6F3
:10FAA00036C0C05EDE4F288139814A815B81C052F9
:10FAB000D1400894C108D108760100E010E0089414
:10FAC000C11CD11C0894E11CF11C011D111DE20E8A
:10FAD000F31E041F151F21BDBB27A52F942F832FB5
:10FAE00082BD2F5F3F4F4F4F5F4FF89A80B5DB01CC
:10FAF0008D93BD012E153F054007510761F7C05E8C
:10FB0000DE4F288339834A835B83C052D1409601FC
:10FB10002D5F3F4FFB01108204C080EC8A8322E0FE
:10FB200030E08BE18093C6008091C00086FFFCCF5F
:10FB30008091C00080648093C000C15DDE4FF88179
:10FB4000CF52D140F093C6008091C00086FFFCCF19
:10FB50008091C00080648093C000432F3093C60022
:10FB60008091C00086FFFCCF8091C00080648093AC
:10FB7000C000922F2093C6008091C00086FFFCCF6A
:10FB80008091C00080648093C0008EE08093C600A6
:10FB90008091C00086FFFCCF8091C000806480937C
:10FBA000C00065E1C15DDE4FE880CF52D1406E25D7
:10FBB00069276427FE01319610C090819093C6009A
:10FBC0008091C00086FFFCCF31968091C000806498
:10FBD0008093C0006927215030402115310569F715
:10FBE0006093C6008091C00086FFFCCF8091C0006A
:10FBF00080648093C00085B1805885B9772081F4F6
:10FC0000C15DDE4F0881CF52D1400F5FC15DDE4F35
:10FC10000883CF52D14090E0A0E0B0E00D941AF4F8
:10FC200027982F9880E090E020ED37E0F901319798
:10FC3000F1F7019684369105C9F700008091C00064
:10FC40008D7F8093C00081E180935700E895EE2777
:10FC5000FF270994FFCF90E00D941AF497FB092E2B
:10FC600007260AD077FD04D02ED006D000201AF443
:10FC7000709561957F4F0895F6F7909581959F4F08
:10FC80000895A1E21A2EAA1BBB1BFD010DC0AA1FDD
:10FC9000BB1FEE1FFF1FA217B307E407F50720F0F5
:10FCA000A21BB30BE40BF50B661F771F881F991F70
:10FCB0001A9469F760957095809590959B01AC01B9
:10FCC000BD01CF010895AA1BBB1B51E107C0AA1FAC
:10FCD000BB1FA617B70710F0A61BB70B881F991FED
:10FCE0005A95A9F780959095BC01CD010895F99991
:10FCF000FECF92BD81BDF89A992780B50895262F31
:10FD0000F999FECF1FBA92BD81BD20BD0FB6F89400
:0EFD1000FA9AF99A0FBE01960895F894FFCF63
:00000001FF
