:100000000C9469010C949A010C949A010C949A0135
:100010000C949A010C949A010C949A010C949A01F4
:100020000C949A010C949A010C949A010C949A01E4
:100030000C949A010C949A010C949A010C949A01D4
:100040000C949A010C949A010C949A010C949A01C4
:100050000C949A010C949A010C949A010C94870BBD
:100060000C949A010C94510B0C94270B0C949A014C
:100070000C949A010C949A010C949A010C949A0194
:100080000C949A010C949A010C949A010C949A0184
:100090000C949A010C949A010C949A010C949A0174
:1000A0000C949A010C949A010C949A010C949A0164
:1000B0000C949A010C949A010C949A010C949A0154
:1000C0000C949A010C949A010C949A010C949A0144
:1000D0000C949A010C949A010C949A010C949A0134
:1000E0000C949A010C94B0030C94E8010C94FF0555
:1000F0000C9477040C94CF040C9414060C94F70120
:100100000C9471040C946B040C94F9020C94F1059A
:100110000C94B4030C94FB030C94A6030C94A0035E
:100120000C948D050C940D060C94F8050C94730436
:100130000C94B8030C9459020C9499030C94770511
:100140000C9424050C94C2030C94EA050C94D10B76
:100150000C9429040C9446040C94BB010C940606E0
:100160000C94E2050C949D030C94BE030C94D003F4
:100170000C9495030C946F040C94C6030C94F00437
:100180000C9491020C946D040C9475040C947F03F0
:100190000C9491030C9445050C947A030C94AA03D7
:1001A0000C94CB050C9479040C94CC030C944B0266
:1001B00000000A0B02090C0D0E08070304010000E1
:1001C000000000000000000000000000000000002F
:1001D00000000000000000000000000012111000EC
:1001E000000000000000000000000000000000000F
:1001F0000000000000007D002C20227A223A20001E
:100200002C202279223A20007B2278223A200000FA
:10021000002200250028002B002E003100340002AF
:10022000010000050108010B010000210024002746
:10023000002A002D003000330001010000040107F6
:10024000010A01050505050705080808080202025C
:10025000020A0A0808040404040101010101010161
:10026000010303030303030303040707070C0C0C38
:100270000C0C0C0C0C020202020606060606060610
:10028000060B0B0B0B0B0B0B0B01021020200808AD
:1002900010204010204080020102010804020101E8
:1002A00002040810204080804020100804020180D1
:1002B0000402018040201008040201080402010128
:1002C0000204081020408001020408102040800031
:1002D000D10B11241FBECFEFD1E2DEBFCDBF00E0B6
:1002E0000CBF23E0AAE7B2E001C01D92AC3FB20709
:1002F000E1F712E0A0E0B2E0EEEDF7E200E00BBFC4
:1003000002C007900D92AA37B107D9F711E0C9E6EC
:10031000D1E000E006C021970109802FFE010E9474
:10032000C611C836D10780E00807A9F70E941D0C46
:100330000C94ED130C94000090E0FC01E757FD4F86
:1003400024918D5B9D4FFC018491882399F090E06E
:10035000880F991FFC01E75DFD4FA591B491FC0149
:10036000E15FFD4F859194918FB7F894EC91E22B6A
:10037000EC938FBF0895AF92BF92CF92DF92EF922E
:10038000FF920F931F93CF93DF936C017B018B013F
:10039000040F151FEB015E01AE18BF08C017D1078F
:1003A00059F06991D601ED91FC910190F081E02D19
:1003B000C6011995892B79F7C501DF91CF911F915E
:1003C0000F91FF90EF90DF90CF90BF90AF90089586
:1003D000FC01538D448D252F30E0842F90E0821B4B
:1003E000930B541710F0CF96089501970895FC01D0
:1003F000918D828D981761F0A28DAE0FBF2FB11D28
:100400005D968C91928D9F5F9F73928F90E008957F
:100410008FEF9FEF08952FB7F89480918502909108
:100420008602A0918702B09188022FBF809391022B
:1004300090939202A0939302B093940289E892E081
:100440000E94F70197FF26C02FB7F894809185028C
:1004500090918602A0918702B09188022FBF4091AF
:100460009102509192026091930270919402841BC8
:10047000950BA60BB70B40918D0250918E026091A7
:100480008F027091900284179507A607B707B0F204
:100490008FEF9FEF0895FC01918D828D981731F0B9
:1004A000828DE80FF11D858D90E008958FEF9FEF0D
:1004B0000895FC01918D228D892F90E0805C9F4FE3
:1004C000821B91098F739927089589E892E00E9411
:1004D000590221E0892B09F420E0822F0895FC01C4
:1004E000A48DA80FB92FB11DA35ABF4F2C91848D95
:1004F00090E001968F739927848FA689B7892C93F2
:10050000A089B1898C91837080648C93938D848D44
:10051000981306C00288F389E02D80818F7D808347
:100520000895EF92FF920F931F93CF93DF93EC0107
:1005300081E0888F9B8D8C8D98131AC0E889F9898A
:10054000808185FF15C09FB7F894EE89FF8960838D
:10055000E889F98980818370806480839FBF81E00E
:1005600090E0DF91CF911F910F91FF90EF90089550
:10057000F62E0B8D10E00F5F1F4F0F731127E02E2B
:100580008C8D8E110CC00FB607FCFACFE889F98963
:10059000808185FFF5CFCE010E946F02F1CFEB8DF8
:1005A000EC0FFD2FF11DE35AFF4FF0829FB7F89437
:1005B0000B8FEA89FB8980818062CFCF0F931F93D5
:1005C000CF93DF938C01D0E0C0E0F801EC0FFD1F6A
:1005D0006491662341F089E892E00E949102892BA0
:1005E00011F02196F2CFCE01DF91CF911F910F91A3
:1005F0000895CF93DF93EC01888D8823B9F0AA8901
:10060000BB89E889F9898C9185FD03C0808186FDCD
:100610000DC00FB607FCF7CF8C9185FFF2CF80811C
:1006200085FFEDCFCE010E946F02E9CFDF91CF9120
:10063000089580E090E0892B29F00E9465028111E5
:100640000E94000080E090E0892B49F080E090E07B
:10065000892B29F00E94000081110E94000080E097
:1006600090E0892B49F080E090E0892B29F00E94EE
:10067000000081110E94000080E090E0892B49F089
:1006800080E090E0892B29F00E94000081110C94F9
:1006900000000895282F30E0F901E055FE4F9491B5
:1006A000F901E757FD4F44912D5B3D4FF90124912E
:1006B000222309F435C0992311F191509231F8F4B5
:1006C000E92FF0E08827E859FC4F8F4F0C94C611B2
:1006D00099039D037A03910395037F03A003A60367
:1006E000AA03B003B403B803BE03C2037F03C60367
:1006F000CC03D003809180008F7780938000E22F1D
:10070000F0E0EE0FFF1FE15FFD4FA591B4918FB7B1
:10071000F894EC91611148C040954E234C938FBFE3
:100720000895809180008F7DE8CF80918000877F41
:10073000E4CF84B58F7784BDE2CF84B58F7DFBCFC6
:100740008091B0008F778093B000D9CF8091B000B6
:100750008F7DF9CF809190008F7780939000CFCFDD
:10076000809190008F7DF9CF80919000877FF5CFA9
:100770008091A0008F778093A000C1CF8091A000CE
:100780008F7DF9CF8091A000877FF5CF80912001E8
:100790008F7780932001B3CF809120018F7DF9CF97
:1007A00080912001877FF5CF4E2BB8CF3FB7F894CB
:1007B00080917B0290917C02A0917D02B0917E029B
:1007C00026B5A89B05C02F3F19F00196A11DB11DAC
:1007D0003FBFBA2FA92F982F8827BC01CD01620FE8
:1007E000711D811D911D42E0660F771F881F991FA3
:1007F0004A95D1F70895CF93DF93FC0123812223FB
:1008000029F1EC0184810E949C018D810E949C0150
:100810008B81843011F0883099F48E810E949C0184
:100820008F810E949C018FA58F3F81F00E949C01C7
:100830006EA581E068278FA5DF91CF910C944A03C4
:10084000833011F0863079F78E81EBCFDF91CF9135
:100850000895CF93DF93FC0123812223A1F0EC01C3
:100860000190F081E02D0480F581E02D60E0199584
:100870008FA58F3F41F00E949C016EA58FA5DF914F
:10088000CF910C944A03DF91CF910895DC01ED9153
:10089000FC9111972481358147705527662777276A
:1008A00041505109610971094730510561057105D0
:1008B00070F4FA018827E05AFB4F8F4F0C94C61151
:1008C0006B046D046F04710473047504770461E0B4
:1008D000CD01F901199465E0FBCF64E0F9CF66E042
:1008E000F7CF62E0F5CF6AE0F3CF68E0F1CF69E0DF
:1008F000EFCFCF93DF93EC01CB01BA0126E030E0DC
:1009000040E050E00E94A711623071058105910519
:1009100089F16CF46115710581059105D1F06130A3
:10092000710581059105F9F0DF91CF91089564304B
:1009300071058105910561F124F16530710581052D
:10094000910591F7E881F9810480F581E02D66E059
:1009500006C0E881F9810480F581E02D64E0CE01D4
:10096000DF91CF911994E881F9810480F581E02D20
:1009700065E0F5CFE881F9810480F581E02D61E043
:10098000EECFE881F9810480F581E02D63E0E7CFC7
:10099000E881F9810480F581E02D62E0E0CFDC019F
:1009A000ED91FC910480F581E02D43705527662779
:1009B0007727423051056105710571F043305105CB
:1009C0006105710559F0413051056105710511F05E
:1009D00065E0199466E0FDCF6AE0FBCF69E0F9CFEE
:1009E000CF93DF93EC01CB01BA0123E030E040E08C
:1009F00050E00E94A711613071058105910599F0C1
:100A00006230710581059105A9F0672B682B692B70
:100A1000C1F4E881F9810480F581E02D64E0CE0124
:100A2000DF91CF911994E881F9810480F581E02D5F
:100A300061E0F5CFE881F9810480F581E02D62E085
:100A4000EECFDF91CF910895DC01ED91FC91048010
:100A5000F581E02D437055276627772742305105F1
:100A60006105710571F0433051056105710559F05B
:100A7000413051056105710511F062E0199463E0A0
:100A8000FDCF61E0FBCF60E0F9CFCF93DF93EC01C6
:100A9000E881F9810480F581E02D8A8160E081118F
:100AA00062E0CE011995E881F9810480F581E02D9D
:100AB0008A8161E0811163E0CE0119958CA59DA525
:100AC0008230910538F0880F991F880F991F05977C
:100AD0000197F1F7E881F9810480F581E02D8A81A1
:100AE00060E0811162E0CE01DF91CF911994CF9344
:100AF000DF93EC0120E030E0A9016C897D898E89CB
:100B00009F890E94251118162CF4E8A9F9A9DF91F4
:100B1000CF911994EAA9FBA9FACFCF92DF92EF9275
:100B2000FF920F931F93CF93DF93DC011396CC9129
:100B3000C43039F0C83059F1C33019F0C63049F12A
:100B4000C2E08C010C5F1F4FF12CE12CC62ED12C82
:100B5000D1E0F8016481C6010E2C02C095958795FD
:100B60000A94E2F780FD6D270F5F1F4F80810E947E
:100B70004A03BFEFEB1AFB0AEC1658F3DF91CF9153
:100B80001F910F91FF90EF90DF90CF900895C4E0F8
:100B9000D8CFC3E0D6CFDC011396EC911397E930A0
:100BA00008F042C0F0E08827E752FA4F8F4F0C94CC
:100BB000C611E205EA05F105F805FF05140606066B
:100BC00014060D06ED91FC9111970084F185E02D3E
:100BD000CD011994ED91FC9111970284F385E02DDC
:100BE000F7CFED91FC9111970484F585E02DF0CFBE
:100BF000ED91FC9111970684F785E02DE9CFED91F9
:100C0000FC9111970088F189E02DE2CFED91FC91E4
:100C100011970288F389E02DDBCFED91FC911197BC
:100C20000488F589E02DD4CF08954F925F926F929A
:100C30007F928F929F92AF92BF92CF92DF92EF926C
:100C4000FF920F931F93CF93DF93EC01C888D9884D
:100C5000EA88FB888C859D85AE85BF85C81AD90A30
:100C6000EA0AFB0A6C897D898E899F899B01AC0108
:100C70000E94520F4B015C016C8D7D8D8E8D9F8D7E
:100C80009B01AC010E9411109B01AC01C501B40194
:100C90000E947D100E94EF10C114D104E104F10400
:100CA00009F0B1C062307105810591050CF0CBC02F
:100CB0001CA21DA21EA21FA21C8A1D8A1E8A1F8A98
:100CC0001CAA1DAA1EAA1FAADF91CF911F910F91E6
:100CD000FF90EF90DF90CF90BF90AF909F908F905C
:100CE0007F906F905F904F90089510161106120636
:100CF0001306B4F46C157D058E059F051CF42A813E
:100D00002111A1C09B01AC0188279927DC01821B1E
:100D1000930BA40BB50B8CAB9DABAEABBFAB93C031
:100D2000011511052105310509F48DC06C157D05EE
:100D30008E059F050CF087C08A81882309F483C043
:100D400030952095109501951F4F2F4F3F4F0CABBD
:100D50001DAB2EAB3FAB77C0011511052105310549
:100D600009F471C08824992454018C189D08AE0898
:100D7000BF08681579058A059B050CF064C08A8157
:100D8000811161C0DDCFCCACDDACEEACFFACA70116
:100D90009601C701B6010E9411102B013C01C5014B
:100DA000B4010E94F30E20E030E040E850E40E94DD
:100DB000520F20E030E040E85FE30E9411109B01F9
:100DC000AC01C301B2010E947D109B01AC01C701BF
:100DD000B6010E9410103B016C01FE01E05CFF4F68
:100DE000E080F180028113819701A8010E94251102
:100DF000181614F473018601C701D8018CAF9DAF9A
:100E0000AEAFBFAF3AC00CA91DA92EA93FA91C14B3
:100E10001D041E041F040CF468CF101611061206E0
:100E200013060CF099CF0027112798010C191D0902
:100E30002E093F0960177107820793070CF062CFF4
:100E40002A8121115FCF8CA89DA8AEA8BFA88114CC
:100E50009104A104B10409F096CF88AD99ADAAAD73
:100E6000BBAD8CAF9DAFAEAFBFAF81E01C141D0416
:100E70001E041F040CF080E08A833FEF831A930A5C
:100E8000A30AB30A8CAA9DAAAEAABFAACCACDDACB9
:100E9000EEACFFACC701B6010E94F6106CA37DA3B7
:100EA0008EA39FA3A701960160E074E284E799E412
:100EB0000E947D106C8B7D8B8E8B9F8B2A812111E4
:100EC00003CF90586C8B7D8B8E8B9F8BFDCECF92FA
:100ED000DF92EF92FF92CF93DF93EC018CA19DA163
:100EE000AEA1BFA1892B8A2B8B2B99F10E94D6032F
:100EF0006B017C0188A599A5AAA5BBA5B701A60190
:100F0000481B590B6A0B7B0B8CA19DA1AEA1BFA105
:100F1000481759076A077B07E0F08C859D85AE85E9
:100F2000BF852A812223A9F10196A11DB11D8C87BD
:100F30009D87AE87BF874C855D856E857F85CE0199
:100F40000E94CB05C8A6D9A6EAA6FBA6CE010E94A0
:100F5000150620E030E0A9016C897D898E899F8982
:100F60000E94EC0E8111BACF488959896A897B8920
:100F70008C859D85AE85BF85481759076A077B0715
:100F800009F0ACCFDF91CF91FF90EF90DF90CF9041
:100F900008950197A109B109CACF8F929F92AF928C
:100FA000BF920F931F93CF93DF93CDB7DEB7A19777
:100FB0000FB6F894DEBF0FBECDBF19A2423008F4C1
:100FC0004AE08E010F5D1F4F842E912CB12CA12C75
:100FD000A50194010E948511E62FB901CA01EA30EA
:100FE00044F5E05DD801EE938D01232B242B252BB6
:100FF00079F790E080E0109769F0FD010190002002
:10100000E9F73197AF014A1B5B0BBD0189E892E01C
:101010000E94BB01A1960FB6F894DEBF0FBECDBFF4
:10102000DF91CF911F910F91BF90AF909F908F90C4
:101030000895E95CD7CF42E050E063E372E089E8CD
:1010400092E00C94BB01CF93DF93FC014481558166
:101050006081718189E892E00E94BB01EC010E94ED
:101060001B088C0F9D1FDF91CF910895CF92DF92C7
:10107000EF92FF92CF93DF936C01990FEE08FF0878
:10108000F7FE19C06DE289E892E00E949102EC013E
:1010900066277727CB016C197D098E099F094AE0E5
:1010A0000E94CD078C0F9D1FDF91CF91FF90EF9095
:1010B000DF90CF9008954AE0C701B601DF91CF914C
:1010C000FF90EF90DF90CF900C94CD07CF93DF93FC
:1010D000EC0188819981009711F00E946A121982AF
:1010E00018821D821C821B821A82DF91CF91089583
:1010F000FC0180819181009711F00C946A1208958F
:101100000F931F93CF93DF93EC0188819981009710
:1011100059F02A813B812617370730F081E0DF91B3
:10112000CF911F910F9108958B016F5F7F4F0E94A8
:10113000F312009759F0998388831B830A832C81CB
:101140003D81232B59F7FC011082E8CF80E0E7CFE7
:10115000EF92FF920F931F93CF93DF936115710569
:1011600041F480E0DF91CF911F910F91FF90EF90BC
:10117000089541155105B1F07B01EC010C811D81F1
:10118000040F151FB8010E948008882351F328819D
:1011900039818C819D81B701820F931F0E94E613D4
:1011A0001D830C8381E0DECFEF92FF920F931F939C
:1011B000CF93DF9300D000D01F921F92CDB7DEB740
:1011C0007C01CB014AE08E010F5F1F4FB8010E94E6
:1011D000A20EF80101900020E9F73197AF01401B02
:1011E000510BB801C7010E94A808811103C0C701B3
:1011F0000E946608C70128960FB6F894DEBF0FBE9E
:10120000CDBFDF91CF911F910F91FF90EF90089587
:10121000CF93DF93EC01FB0101900020E9F73197B8
:10122000AF01461B570B0E94A808811103C0CE01D5
:101230000E946608CE01DF91CF910895EF92FF9250
:101240000F931F93CF93DF93EC017B018A01BA01C7
:101250000E94800881110BC0CE010E946608CE0159
:10126000DF91CF911F910F91FF90EF9008951D8313
:101270000C83B701888199810E94E613F0CFFB01AE
:1012800001900020E9F73197AF01461B570B0C94F2
:101290001E09CF92DF92EF92FF920F931F93CF938D
:1012A000DF93CDB7DEB72C970FB6F894DEBF0FBE35
:1012B000CDBF8C017B0188EC809F6001819FD00CA9
:1012C00011241A8219821C821B821E821D8266E3EF
:1012D00072E0CE0101960E943F0918861F821A868D
:1012E00019861C861B8669817A816115710531F02A
:1012F0004D815E81CE0107960E941E09B801CE0184
:1013000007960E94D40861E472E00E940809B601C1
:101310000E94D40864E472E00E9408090E94230835
:10132000CE0107960E947808CE0101960E947808A7
:10133000C601DD0CAA0BBB0B21E0E216F10481F51E
:101340004091BE035091BF036091C0037091C103EF
:1013500084179507A607B70761F08093BE039093A3
:10136000BF03A093C003B093C1038EEA93E00E9431
:1013700015068EEA93E00E9467071093840200939B
:1013800083022C960FB6F894DEBF0FBECDBFDF915F
:10139000CF911F910F91FF90EF90DF90CF90089524
:1013A00022E0E216F10411F540917A0350917B039B
:1013B00060917C0370917D0384179507A607B7079A
:1013C00061F080937A0390937B03A0937C03B093A6
:1013D0007D038AE693E00E9415068AE693E00E9468
:1013E00067071093820200938102CBCF40913603AE
:1013F0005091370360913803709139038417950732
:10140000A607B70761F08093360390933703A09344
:101410003803B093390386E293E00E94150686E212
:1014200093E00E9467071093800200937F02A9CF88
:101430000F931F93CF93DF931F921F92CDB7DEB709
:101440008C01FC0111821082138212821582148297
:1014500065E372E00E943F090E940B0297FD0EC0F7
:101460008A30910559F089831A8241E050E0BE012B
:101470006F5F7F4FC8010E94A808EECFC8010F9090
:101480000F90DF91CF911F910F9108954F925F922E
:101490006F927F928F929F92AF92BF92CF92DF9284
:1014A000EF92FF92CF93DF93EC016A017B0120E082
:1014B00030E0A901CB01B6010E94EC0E87FF04C009
:1014C000F7FAF094F7F8F0948C8C9D8CAE8CBF8C6E
:1014D000A7019601C501B4010E94EC0E882309F40E
:1014E00049C06CA97DA98EA99FA90E94F30E2B016A
:1014F0003C01A7019601C501B4010E947D109B012A
:10150000AC01C301B2010E94520F0E94EF106CABFC
:101510007DAB8EAB9FABA701960160E070E080E0F1
:1015200090E40E947D100E94301126E53EE04DE2DD
:101530005FE30E94520F20E034E244E759E40E9446
:10154000520F68AF79AF8AAF9BAFCC8EDD8EEE8E37
:10155000FF8ECE01DF91CF91FF90EF90DF90CF9083
:10156000BF90AF909F908F907F906F905F904F90C3
:101570000C941506DF91CF91FF90EF90DF90CF9004
:10158000BF90AF909F908F907F906F905F904F90A3
:101590000895CF93DF93EC018BE092E099838883E9
:1015A00081E08B831C861D861E861F86188A198AF9
:1015B0001A8A1B8A1C8A1D8A1E8A1F8A80E090E074
:1015C000A0E8BFE3888F998FAA8FBB8F1C8E1D8EDA
:1015D0001E8E1F8E88A399A3AAA3BBA31CA21DA223
:1015E0001EA21FA221E030E03DA72CA72FEF2FA7BE
:1015F00018A619A61AA61BA66C834D8324E02E8379
:1016000025E02F831EA61CAA1DAA1EAA1FAA18AE7B
:1016100019AE1AAE1BAE1CAE1DAE1EAE1FAEFE0145
:10162000E05CFF4F80839183A283B3831A82188684
:1016300019861A861B86CE010E94FB0340E050E00B
:1016400060E87FE3CE01DF91CF910C94460A1F92B0
:101650000F920FB60F9211240BB60F922F933F9358
:101660004F935F936F937F938F939F93AF93BF93AA
:10167000EF93FF9389E892E00E946F02FF91EF9150
:10168000BF91AF919F918F917F916F915F914F919A
:101690003F912F910F900BBE0F900FBE0F901F9098
:1016A00018951F920F920FB60F9211240BB60F923E
:1016B0002F938F939F93EF93FF93E0919902F09173
:1016C0009A028081E0919F02F091A00282FD1DC0EC
:1016D00090818091A2028F5F8F732091A302821765
:1016E00041F0E091A202F0E0E757FD4F958F809323
:1016F000A202FF91EF919F918F912F910F900BBEBE
:101700000F900FBE0F901F9018958081F2CF1F92FF
:101710000F920FB60F9211242F933F938F939F93A5
:10172000AF93BF938091850290918602A09187022A
:10173000B091880230917A0223E0230F2D3758F5BB
:101740000196A11DB11D20937A028093850290938A
:101750008602A0938702B093880280917B029091C9
:101760007C02A0917D02B0917E020196A11DB11D67
:1017700080937B0290937C02A0937D02B0937E02C3
:10178000BF91AF919F918F913F912F910F900FBE7D
:101790000F901F90189526E8230F0296A11DB11DEA
:1017A000D2CFE9E8F2E01382128288EE93E0A0E063
:1017B000B0E084839583A683B78385E292E091832A
:1017C000808385EC90E09587848784EC90E0978710
:1017D000868780EC90E0918B808B81EC90E0938BFE
:1017E000828B82EC90E0958B848B86EC90E0978BDB
:1017F000868B118E128E138E148EE2EFF3E085E04D
:1018000090E09183808382E090E09383828388ECF0
:1018100090E09583848345E062E08EEA93E00E9445
:10182000C90A46E063E08AE693E00E94C90A47E0FD
:1018300064E086E293E00C94C90ACF93DF93CDB7BE
:10184000DEB762970FB6F894DEBF0FBECDBF7894B7
:1018500084B5826084BD84B5816084BD85B58260B5
:1018600085BD85B5816085BD80916E008160809366
:101870006E001092810080918100826080938100CF
:1018800080918100816080938100809180008160DF
:10189000809380008091B10084608093B10080913A
:1018A000B00081608093B00080919100826080934D
:1018B00091008091910081608093910080919000CF
:1018C0008160809390008091A10082608093A1004C
:1018D0008091A10081608093A1008091A00081602F
:1018E0008093A000809121018260809321018091EA
:1018F000210181608093210180912001816080938A
:10190000200180917A00846080937A0080917A002F
:10191000826080937A0080917A00816080937A005F
:1019200080917A00806880937A001092C10085E0EF
:101930000E949C0182E00E949C01E0919902F0913A
:101940009A0282E08083E0919502F09196021082E3
:10195000E0919702F09198028FEC80831092A1029F
:10196000E0919D02F0919E0286E08083E0919B02CF
:10197000F0919C02808180618083E0919B02F091D4
:101980009C02808188608083E0919B02F0919C02A0
:10199000808180688083E0919B02F0919C0280812D
:1019A0008F7D80830091F6031091F703E090F4039C
:1019B000F090F503C090F203D090F30318861F82D5
:1019C0001A8619861C861B8666E472E0CE0107968D
:1019D0000E943F091A8219821C821B821E821D826C
:1019E0006F8178856115710531F04B855C85CE017D
:1019F00001960E941E09B601CE0101960E94D408EC
:101A00006DE472E00E940809B7010E94D40865E500
:101A100072E00E940809B8010E94D4080E942308BD
:101A2000CE0101960E947808CE0107960E947808A0
:101A300020E030E041EE54E46091C6037091C703AA
:101A40008091C8039091C9030E94EC0E882309F489
:101A500053C080E090E0A1EEB4E48093C60390937D
:101A6000C703A093C803B093C9038EE893EEAAE01E
:101A7000B4E48093EE039093EF03A093F003B0934C
:101A8000F1038091E2039091E303A091E403B0910C
:101A9000E503181619061A061B0674F56091C203B1
:101AA0007091C3038091C4039091C5039B01AC0165
:101AB0000E94520F6B017C016091CA037091CB03AD
:101AC0008091CC039091CD039B01AC010E94111039
:101AD0009B01AC01C701B6010E947D100E94EF106E
:101AE0006093E2037093E3038093E4039093E50330
:101AF0008EEA93E00E94150640E050E068E474E44A
:101B00008EEA93E00E94460A95E0792E0BE91FE0E9
:101B100080910002882349F160E08091F2030E94E5
:101B20004A03F12CE12C2091F6033091F703729EC9
:101B3000C001739E900D1124E816F906A4F461E02B
:101B40008091F4030E944A03C8010197F1F760E015
:101B50008091F4030E944A03C8010197F1F72FEF27
:101B6000E21AF20AE0CF1092000289E892E00E94A5
:101B7000590202970CF4B8C0CE010D960E94180AC3
:101B80001A8219821C821B821E821D8265E672E007
:101B9000CE0101960E943F0918861F821A86198677
:101BA0001C861B8669817A816115710531F04D8132
:101BB0005E81CE0107960E941E0949895A896D856A
:101BC0007E85CE0107960E94A808811104C0CE012F
:101BD00007960E946608CE0107960E942308CE0150
:101BE00007960E947808CE0101960E947808CE01DF
:101BF00001960E94180A89819A81C12CD12C760104
:101C0000009719F00E947B0E6B015601CE010196E0
:101C10000E94780889899A89892B09F468C08D8483
:101C20009E846DE672E0C4010E94DD1361E070E005
:101C3000892B51F063E772E0C4010E94DD13892B08
:101C400009F055C062E070E0C6010E94490988E0D1
:101C500092E00E94DE0280918302909184020E94B1
:101C6000360880E092E00E94DE028091810290912D
:101C700082020E94360888EF91E00E94DE02809185
:101C80007F02909180020E94360886EF91E00E94C8
:101C9000DE020E941B080E94D6036B017C0188EEC5
:101CA000882E83E0982EA12CB12C0E94D6036C19AB
:101CB0007D098E099F09683E734081059105A8F34F
:101CC00081E0881A9108A108B10828EEC20E23E02D
:101CD000D21EE11CF11C81149104A104B10429F766
:101CE000CE010D960E9478080E94190311CF63E07F
:101CF00070E0C501AACF1F93FC0199278827BC017A
:101D0000E89411911032E9F3193010F01E30C8F345
:101D10001B3251F01D3249F4689406C00E94AD0E8A
:101D2000610F711D811D911D119110531A30B0F377
:101D30003EF490958095709561957F4F8F4F9F4FA2
:101D40001F910895BB274A3031F4992322F4BDE254
:101D5000909581959F4F0C94C30E592F482F372F84
:101D6000262F660F771F881F991F660F771F881F02
:101D7000991F620F731F841F951F660F771F881F9F
:101D8000991F0895BB27FB015527AA27880F991F84
:101D9000AA1FA41710F0A41B83955051B9F7A05D9A
:101DA000AA3308F0A95DA193009779F7B111B19317
:101DB0001192CB010C94DC0EDC01FC01672F7191B8
:101DC0007723E1F7329704C07C916D937083629121
:101DD000AE17BF07C8F308950E942E0F08F481E0E4
:101DE0000895E89409C097FB3EF49095809570950E
:101DF00061957F4F8F4F9F4F9923A9F0F92F96E957
:101E0000BB279395F695879577956795B795F111CB
:101E1000F8CFFAF4BB0F11F460FF1BC06F5F7F4F68
:101E20008F4F9F4F16C0882311F096E911C077237A
:101E300021F09EE8872F762F05C0662371F096E883
:101E4000862F70E060E02AF09A95660F771F881F52
:101E5000DAF7880F9695879597F90895990F0008F6
:101E6000550FAA0BE0E8FEEF16161706E807F9076C
:101E7000C0F012161306E407F50798F0621B730B07
:101E8000840B950B39F40A2661F0232B242B252B88
:101E900021F408950A2609F4A140A6958FEF811D2B
:101EA000811D08950E94650F0C94D60F0E94C80FE3
:101EB00038F00E94CF0F20F0952311F00C94BF0F43
:101EC0000C94C50F11240C940A100E94E70F70F3B4
:101ED000959FC1F3950F50E0551F629FF001729FCF
:101EE000BB27F00DB11D639FAA27F00DB11DAA1FDE
:101EF000649F6627B00DA11D661F829F2227B00D2B
:101F0000A11D621F739FB00DA11D621F839FA00DB5
:101F1000611D221F749F3327A00D611D231F849F05
:101F2000600D211D822F762F6A2F11249F5750405C
:101F30009AF0F1F088234AF0EE0FFF1FBB1F661FD7
:101F4000771F881F91505040A9F79E3F510580F0A0
:101F50000C94BF0F0C940A105F3FE4F3983ED4F347
:101F6000869577956795B795F795E7959F5FC1F744
:101F7000FE2B880F911D9695879597F9089597F9EF
:101F80009F6780E870E060E008959FEF80EC08951F
:101F900000240A9416161706180609060895002448
:101FA0000A9412161306140605060895092E0394C2
:101FB000000C11F4882352F0BB0F40F4BF2B11F436
:101FC00060FF04C06F5F7F4F8F4F9F4F089557FD95
:101FD0009058440F551F59F05F3F71F04795880F97
:101FE00097FB991F61F09F3F79F08795089512162E
:101FF00013061406551FF2CF4695F1DF08C01616DA
:1020000017061806991FF1CF86957105610508948A
:102010000895E894BB2766277727CB0197F90895A1
:102020005058BB27AA270E9428100C94D60F0E9454
:10203000C80F38F00E94CF0F20F039F49F3F19F4F9
:1020400026F40C94C50F0EF4E095E7FB0C94BF0F3B
:10205000E92F0E94E70F58F3BA1762077307840746
:10206000950720F079F4A6F50C9409100EF4E0958C
:102070000B2EBA2FA02D0B01B90190010C01CA0142
:10208000A0011124FF27591B99F0593F50F4503EED
:1020900068F11A16F040A22F232F342F4427585FDF
:1020A000F3CF469537952795A795F0405395C9F7F7
:1020B0007EF41F16BA0B620B730B840BBAF09150AF
:1020C000A1F0FF0FBB1F661F771F881FC2F70EC04E
:1020D000BA0F621F731F841F48F487957795679521
:1020E000B795F7959E3F08F0B0CF9395880F08F00D
:1020F0009927EE0F9795879508950E9491100C945B
:10210000D60F0E94CF0F58F00E94C80F40F029F45C
:102110005F3F29F00C94BF0F51110C940A100C94DE
:10212000C50F0E94E70F68F39923B1F3552391F38C
:10213000951B550BBB27AA2762177307840738F036
:102140009F5F5F4F220F331F441FAA1FA9F335D093
:102150000E2E3AF0E0E832D091505040E695001C47
:10216000CAF72BD0FE2F29D0660F771F881FBB1F01
:10217000261737074807AB07B0E809F0BB0B802DDF
:10218000BF01FF2793585F4F3AF09E3F510578F00B
:102190000C94BF0F0C940A105F3FE4F3983ED4F305
:1021A000869577956795B795F7959F5FC9F7880FDF
:1021B000911D9695879597F90895E1E0660F771F31
:1021C000881FBB1F621773078407BA0720F0621BC2
:1021D000730B840BBA0BEE1F88F7E09508950E94ED
:1021E000F6106894B1110C940A1008950E94EF0F34
:1021F00088F09F5798F0B92F9927B751B0F0E1F0C8
:10220000660F771F881F991F1AF0BA95C9F714C077
:10221000B13091F00E940910B1E008950C940910BA
:10222000672F782F8827B85F39F0B93FCCF38695B0
:1022300077956795B395D9F73EF49095809570950D
:1022400061957F4F8F4F9F4F08950E942E0F08F486
:102250008FEF089519F416F40C94C50F0C947011B7
:102260000E94EF0FB8F39923C9F3B6F39F57550BAC
:1022700087FF0E947E110024A0E640EA900180586A
:102280005695979528F4805C660F771F881F20F07D
:1022900026173707480730F4621B730B840B20297D
:1022A00031294A2BA69517940794202531254A27D2
:1022B00058F7660F771F881F20F026173707480743
:1022C00030F4620B730B840B200D311D411DA09562
:1022D00081F7B901842F9158880F969587950895B5
:1022E0009F3F31F0915020F4879577956795B7958A
:1022F000880F911D9695879597F9089591505040B4
:10230000660F771F881FD2F70895A1E21A2EAA1B25
:10231000BB1BFD010DC0AA1FBB1FEE1FFF1FA21795
:10232000B307E407F50720F0A21BB30BE40BF50B92
:10233000661F771F881F991F1A9469F7609570951B
:10234000809590959B01AC01BD01CF010895052EAC
:1023500097FB1EF400940E94BE1157FD07D00E9407
:10236000851107FC03D04EF40C94BE115095409596
:10237000309521953F4F4F4F5F4F08959095809531
:10238000709561957F4F8F4F9F4F0895EE0FFF1F00
:10239000881F8BBF0790F691E02D19940F931F9320
:1023A000CF93DF938230910510F482E090E0E091CA
:1023B000FA03F091FB0330E020E0B0E0A0E03097BA
:1023C00099F42115310509F44AC0281B390B243032
:1023D0003105D8F58A819B816115710589F1FB0171
:1023E00093838283FE0111C0408151810281138158
:1023F00048175907E0F04817590799F4109761F00A
:1024000012960C93129713961C933296CF01DF917C
:10241000CF911F910F9108950093FA031093FB033E
:10242000F4CF2115310551F04217530738F0A901B7
:10243000DB019A01BD01DF01F801C1CFEF01F9CF46
:102440009093FB038093FA03CDCFFE01E20FF31FBD
:10245000819391932250310939832883D7CF2091DA
:10246000F8033091F903232B41F4209103023091BA
:1024700004023093F9032093F80320910102309174
:1024800002022115310541F42DB73EB740910502F6
:1024900050910602241B350BE091F803F091F903EB
:1024A000E217F307A0F42E1B3F0B2817390778F02B
:1024B000AC014E5F5F4F2417350748F04E0F5F1F8A
:1024C0005093F9034093F803819391939FCFF0E0E9
:1024D000E0E09CCFCF93DF930097E9F0FC013297C7
:1024E00013821282A091FA03B091FB03ED0130E058
:1024F00020E01097A1F420813181820F931F209159
:10250000F8033091F9032817390709F061C0F093F7
:10251000F903E093F803DF91CF910895EA01CE1714
:10252000DF07E8F54A815B819E0141155105B1F74E
:10253000E901FB83EA8349915991C40FD51FEC1738
:10254000FD0761F4808191810296840F951FE90156
:1025500099838883828193819B838A83F0E0E0E082
:1025600012968D919C9113970097B9F52D913C91FE
:102570001197CD010296820F931F2091F80330919D
:10258000F9032817390739F6309751F51092FB03F4
:102590001092FA03B093F903A093F803BCCFD3834E
:1025A000C28340815181840F951FC817D90761F4F8
:1025B0004E5F5F4F88819981480F591F5183408337
:1025C0008A819B81938382832115310509F0B0CFE5
:1025D000F093FB03E093FA039ECFFD01DC01C0CF33
:1025E00013821282D7CF4F925F926F927F928F9217
:1025F0009F92AF92BF92CF92DF92EF92FF920F9392
:102600001F93CF93DF938C01009799F4CB01DF9157
:10261000CF911F910F91FF90EF90DF90CF90BF90DF
:10262000AF909F908F907F906F905F904F900C94A1
:10263000CE11FC01E60FF71F9C0122503109E21771
:10264000F30708F4AEC0D901CD91DC911197C617FC
:10265000D70720F1C530D10578F0CE010497861751
:10266000970750F0C61BD70B2297C193D1936D9358
:102670007C93CF010E946A12C801DF91CF911F9114
:102680000F91FF90EF90DF90CF90BF90AF909F9011
:102690008F907F906F905F904F9008955B01AC1A80
:1026A000BD0A4C018C0E9D1EA091FA03B091FB0354
:1026B000512C412CF12CE12C109731F58091F8032D
:1026C0009091F9038815990509F05CC046165706E4
:1026D00008F058C08091010290910202009741F4E5
:1026E0008DB79EB74091050250910602841B950B51
:1026F000E817F90708F055C0F093F903E093F803E1
:10270000F90171836083B8CF8D919C9111971296D6
:102710006C90129713967C901397A815B90559F5EC
:102720006C0142E0C40ED11CCA14DB0420F1AC01E0
:102730004A195B09DA011296159780F0628273825A
:1027400051834083D9016D937C93E114F10471F0BE
:10275000D7011396FC93EE9312978ECF22968C0F8F
:102760009D1FF90191838083F301EFCFF093FB0369
:10277000E093FA0381CF4816590608F42C017D0135
:10278000D3019ACFCB010E94CE117C01009749F072
:10279000AE01B8010E94D413C8010E946A128701D9
:1027A0006BCF10E000E068CFFB01DC0102C00190BC
:1027B0000D9241505040D8F70895FB01DC018D91F6
:1027C000019080190110D9F3990B0895FB01DC01E8
:0E27D00001900D920020E1F70895F894FFCFDC
:1027DE00010000FC038000000000002904FB038DB3
:1027EE0005CB05770545052405F004CF047904468D
:1027FE0004000000009102BB01E801F9025902F742
:10280E00014B020D0A006C616E676B6168203A2005
:10281E0000202800290020444952203A0020535419
:10282E004550203A002053544550524F544154497C
:10283E004F4E203A006F72646572203A00786178CC
:0A284E006973007961786973000076
:00000001FF
